:100000000C9436000C945E000C945E000C945E0020
:100010000C945E000C945E000C945E000C945E00E8
:100020000C945E000C945E000C945E000C945E00D8
:100030000C945E000C945E000C945E000C945E00C8
:100040000C94EF110C945E000C945F120C94391216
:100050000C945E000C945E000C945E000C945E00A8
:100060000C945E000C945E009112BF1611241FBE0A
:10007000CFEFD8E0DEBFCDBF13E0A0E0B1E0ECED04
:10008000F6E302C005900D92A03DB107D9F725E037
:10009000A0EDB3E001C01D92A130B207E1F710E07E
:1000A000C5E3D0E004C02197FE010E946919C43362
:1000B000D107C9F70E94C3120C94611B0C94000075
:1000C00080E480937C0080917A00806480937A0041
:1000D00080917A0086FDFCCF809178009091790024
:1000E00008952FB7F894609154047091550480914D
:1000F0005604909157042FBF0895AF92BF92CF92AC
:10010000DF92EF92FF920F931F93CF93DF936C01D7
:100110007B018B01040F151FEB015E01AE18BF08B8
:10012000C017D10759F06991D601ED91FC9101906A
:10013000F081E02DC6010995892B79F7C501DF9182
:10014000CF911F910F91FF90EF90DF90CF90BF90D4
:10015000AF900895FC01538D448D252F30E0842FFE
:1001600090E0821B930B541710F0CF9608950197DF
:100170000895FC01918D828D981761F0A28DAE0FCC
:10018000BF2FB11D5D968C91928D9F5F9F73928F53
:1001900090E008958FEF9FEF08950F931F930E94B3
:1001A0007100609360047093610480936204909383
:1001B000630488E594E00E94B90097FF1DC00E9487
:1001C00071000091600410916104209162043091EB
:1001D0006304601B710B820B930B00915C04109104
:1001E0005D0420915E0430915F04601771078207FF
:1001F0009307F8F28FEF9FEF1F910F910895FC0185
:10020000918D828D981731F0828DE80FF11D858DCB
:1002100090E008958FEF9FEF0895FC01918D228D5E
:10022000892F90E0805C9F4F821B91098F739927E3
:10023000089588E594E00E940D0121E0892B09F4DE
:1002400020E0822F089580E090E0892B29F00E9421
:10025000190181110C9400000895FC01A48DA80FD0
:10026000B92FB11DA35ABF4F2C91848D90E00196F8
:100270008F739927848FA689B7892C93A089B18918
:100280008C91837080648C93938D848D981306C0B9
:100290000288F389E02D80818F7D80830895EF921D
:1002A000FF920F931F93CF93DF93EC0181E0888F30
:1002B0009B8D8C8D98131AC0E889F989808185FF00
:1002C00015C09FB7F894EE89FF896083E889F989A2
:1002D00080818370806480839FBF81E090E0DF91A4
:1002E000CF911F910F91FF90EF900895F62E0B8DF7
:1002F00010E00F5F1F4F0F731127E02E8C8D8E11B2
:100300000CC00FB607FCFACFE889F989808185FF18
:10031000F5CFCE010E942D01F1CFEB8DEC0FFD2F1B
:10032000F11DE35AFF4FF0829FB7F8940B8FEA89D3
:10033000FB8980818062CFCFCF93DF93EC01888DE2
:100340008823B9F0AA89BB89E889F9898C9185FD50
:1003500003C0808186FD0DC00FB607FCF7CF8C91DE
:1003600085FFF2CF808185FFEDCFCE010E942D0168
:10037000E9CFDF91CF910895CF93DF93DC0190E037
:10038000EB012197292F092E000C330B2617370775
:100390001CF0DF91CF910895FE01E21BF30BE40FF7
:1003A000F51F80812A0F3B1FF90180839F5FEACFF1
:1003B000FC014150042E000C550B47FF02C080E0A9
:1003C0000895DF01A40FB51F2C91DB01A40FB51F09
:1003D0009C91921730F041505109291770F78FEF17
:1003E000089581E008956150062E000C770B262FAA
:1003F00067FD08C061507109FC01E60FF71F3181EC
:100400003323A9F32F5FC9F0022E000C330B820FA8
:10041000931FFC013197908180E091110BC0215016
:10042000310993E0220F331F9A95E1F7820F932F42
:10043000911D089596958F5FF0CF90E080E008952C
:10044000282FFC0190E08E2F821B861724F081E07C
:10045000911180E008958191982BF5CFCF93DF9390
:10046000FC01DB01EA0190E0892F392F492F51E08F
:1004700060E0C50FD41F0D901A90019C900D811D56
:10048000341F63956517B8F3A51BB40B9193982F90
:10049000832F342F5395521758F3522FC20FD41F66
:1004A00060E00D901A90019C900D811D341F6395A2
:1004B0006517B8F3C50FD41F9193982F832F342F4E
:1004C0005A95A51BB40B541759F791931124DF913A
:1004D000CF910895EF92FF920F931F93CF93DF93E5
:1004E000CDB7DEB7C054D1090FB6F894DEBF0FBE4A
:1004F000CDBF7C018901F9012081CE0101960E94C6
:100500002E02F801E655FF4F0190F081E02DBE016B
:100510006F5F7F4FC7010995C05CDF4F0FB6F8943E
:10052000DEBF0FBECDBFDF91CF911F910F91FF9026
:10053000EF9008959A01AB010C946A02AF92BF92BA
:10054000CF92DF92EF92FF920F931F93CF93DF939F
:10055000CDB7DEB7A0970FB6F894DEBF0FBECDBF04
:100560005C017B016A018901A901B601CE010196F6
:100570000E949A029801AE014F5F5F4FB501C5011D
:100580000E946A029801A601BE016F5F7F4FCB01F6
:100590000E946A029801AE014F5F5F4FB701C70129
:1005A0000E946A02A0960FB6F894DEBF0FBECDBFC0
:1005B000DF91CF911F910F91FF90EF90DF90CF903F
:1005C000BF90AF900895CF93DF93220FDB01EA0134
:1005D000AC01EFE2F3E0E21BF10988940994FA011F
:1005E0003EC0FA0140C0FA0142C0FA0144C0FA011B
:1005F00046C0FA0148C0FA014AC0FA014CC0FA01EB
:100600004EC0FA0150C0FA0152C0FA0154C0FA01BA
:1006100056C0FA0158C0FA015AC0FA015CC0FA018A
:100620005EC0FA0160C0FA0162C0FA0164C0FA015A
:1006300066C0FA0168C0FA016AC0FA016CC0FA012A
:100640006EC0FA0170C0FA0172C0FA0174C0FA01FA
:1006500076C0FA0178C0FA017AC0FA017CC08D91A7
:100660009991890B81938D919991890B81938D91AA
:100670009991890B81938D919991890B81938D919A
:100680009991890B81938D919991890B81938D918A
:100690009991890B81938D919991890B81938D917A
:1006A0009991890B81938D919991890B81938D916A
:1006B0009991890B81938D919991890B81938D915A
:1006C0009991890B81938D919991890B81938D914A
:1006D0009991890B81938D919991890B81938D913A
:1006E0009991890B81938D919991890B81938D912A
:1006F0009991890B81938D919991890B81938D911A
:100700009991890B81938D919991890B81938D9109
:100710009991890B81938D919991890B81938D91F9
:100720009991890B81938D919991890B81938D91E9
:100730009991890B81938D919991890B81938D91D9
:100740009991890B81938D919991890B81938D91C9
:100750009991890B81938D919991890B8193812D29
:10076000881FDF91CF9108956F927F928F929F9211
:10077000AF92BF92CF92DF92EF92FF920F931F93AF
:10078000CF93DF93CDB7DEB7A0970FB6F894DEBF57
:100790000FBECDBF7C014B01042F642FC4010E940A
:1007A000F3012091F8033091F903232B91F1A02E4E
:1007B000002E000CBB08950143E0220F331F4A9521
:1007C000E1F7281B390B8FEF90E002C095958795D4
:1007D0002A95E2F7182F50E4752E650181E0C81ABA
:1007E000D108CE0CDF1CE091F803F091F903B501BC
:1007F000C7010995892B69F0F601808181238083E7
:10080000602FC7010E9420028823D1F07A947110D2
:10081000EACF90E080E0A0960FB6F894DEBF0FBE5E
:10082000CDBFDF91CF911F910F91FF90EF90DF909F
:10083000CF90BF90AF909F908F907F906F900895D2
:10084000202FA701B401CE0101960E94E302682E79
:10085000602FCE0101960E94200291E0811190E06C
:1008600081E0611001C080E0880F981B913071F623
:1008700081E090E0D0CF1F93CF93DF93EC01DB01B9
:1008800010E0EDB7FEB778970FB6F894FEBF0FBE35
:10089000EDBF799698962E91269522932E912795C5
:1008A00022932E91279522932E91279522932E9174
:1008B000279522932E91279522932E912795229367
:1008C0002E91279522932E91279522932E9127954D
:1008D00022932E91279522932E91279522932E9144
:1008E000279522932E91279522932E912795229337
:1008F0002E91279522932E91279522932E9127951D
:1009000022932E91279522932E9127952293222789
:100910002795229333972D9121932D9121932D91FA
:1009200021932D913081230F21932D913081231F0D
:1009300021932D913081231F21932D913081231FED
:1009400021932D913081231F21932D913081231FDD
:1009500021932D913081231F21932D913081231FCD
:1009600021932D913081231F21932D913081231FBD
:1009700021932D913081231F21932D913081231FAD
:1009800021932D913081231F21932D913081231F9D
:1009900021932D913081231F21932D913081231F8D
:1009A00021932D913081231F21932081211D21939B
:1009B0002081211D21932081211D21932081211D32
:1009C00021937897989721913D91230F2993219115
:1009D0003D91231F299321913D91231F299321911B
:1009E0003D91231F299321913D91231F299321910B
:1009F0003D91231F299321913D91231F29932191FB
:100A00003D91231F299321913D91231F29932191EA
:100A10003D91231F299321913D91231F29932191DA
:100A20003D91231F299321913D91231F29932191CA
:100A30003D91231F299321913D91231F29932191BA
:100A40003D91231F299321913D91231F29932191AA
:100A50003D91231F299321913D91231F299321919A
:100A60003D91231F2993111D649734962291269559
:100A70002E93229127952E93229127952E932291A2
:100A800027952E93222727952E93139721912D9307
:100A900021912D9321912D9321913C91230F2D9301
:100AA0002C91211D2D932C91211D2D932C91211DD5
:100AB0002D932C91211D2D9318972D913881230F63
:100AC00029932D913881231F29932D913881231F3C
:100AD00029932D913881231F29932D913881231F2C
:100AE00029932D913881231F29932D913881231F1C
:100AF00029932D913881231F29932881211D299322
:100B00002881211D29932881211D29932881211DB8
:100B100029932881211D29932881211D299328812A
:100B2000211D29932881211D29932881211D299385
:100B30002881211D29932881211D29932881211D88
:100B40002993111D649731970FB6F894FEBF0FBE1D
:100B5000EDBF112379F024E14EE051E0BC010E9489
:100B6000E302113039F024E14EE051E0BE01CE0144
:100B70000E94E30244E16EE071E0CE010E94D801E0
:100B8000181654F424E14EE051E0BE01CE01DF918D
:100B9000CF911F910C94E302DF91CF911F910895A3
:100BA000CF93DF93220FDB01EA01AC01ECE1F6E029
:100BB000E21BF10988940994FA013EC0FA0140C091
:100BC000FA0142C0FA0144C0FA0146C0FA0148C025
:100BD000FA014AC0FA014CC0FA014EC0FA0150C0F5
:100BE000FA0152C0FA0154C0FA0156C0FA0158C0C5
:100BF000FA015AC0FA015CC0FA015EC0FA0160C095
:100C0000FA0162C0FA0164C0FA0166C0FA0168C064
:100C1000FA016AC0FA016CC0FA016EC0FA0170C034
:100C2000FA0172C0FA0174C0FA0176C0FA0178C004
:100C3000FA017AC0FA017CC08D919991891F819344
:100C40008D919991891F81938D919991891F81939C
:100C50008D919991891F81938D919991891F81938C
:100C60008D919991891F81938D919991891F81937C
:100C70008D919991891F81938D919991891F81936C
:100C80008D919991891F81938D919991891F81935C
:100C90008D919991891F81938D919991891F81934C
:100CA0008D919991891F81938D919991891F81933C
:100CB0008D919991891F81938D919991891F81932C
:100CC0008D919991891F81938D919991891F81931C
:100CD0008D919991891F81938D919991891F81930C
:100CE0008D919991891F81938D919991891F8193FC
:100CF0008D919991891F81938D919991891F8193EC
:100D00008D919991891F81938D919991891F8193DB
:100D10008D919991891F81938D919991891F8193CB
:100D20008D919991891F81938D919991891F8193BB
:100D30008D919991891F8193812D881FDF91CF918A
:100D40000895AF92BF92CF92DF92EF92FF920F93EE
:100D50001F93CF93DF936B015A01F9010281138135
:100D6000E8012796D7FD279643E0D595C7954A9584
:100D7000E1F77901F4E2EF0EF11C2C2FA701BC0181
:100D8000C6010E94D00581111DC038E0C302C00118
:100D9000112408171907A4F4F80183E0F595E795E5
:100DA0008A95E1F7EC0DFD1D0770112721E030E079
:100DB00001C0220F0A95EAF78081822311E019F41D
:100DC00010E001C011E02C2FA701B601C5010E945F
:100DD000D005812FDF91CF911F910F91FF90EF9060
:100DE000DF90CF90BF90AF900895EF92FF920F9356
:100DF000CF93DF93EC017901202F0E94E302882337
:100E000059F0202FA701BE01CE01DF91CF910F91A4
:100E1000FF90EF900C94D005DF91CF910F91FF9050
:100E2000EF900895EF92FF920F93CF93DF93EC0131
:100E30007901202F0E94D005811107C0402FBE01EB
:100E4000C7010E94D801813059F0202FA701BE01AF
:100E5000CE01DF91CF910F91FF90EF900C94E302C0
:100E6000DF91CF910F91FF90EF9008956F927F9255
:100E70008F929F92AF92BF92CF92DF92EF92FF92AA
:100E80000F931F93CF93DF93CDB7DEB7A0970FB625
:100E9000F894DEBF0FBECDBF7C014B016A01CE01CD
:100EA00001963C0180E2F30111928A95E9F783E013
:100EB0008983FA011081C7010E949A025601F4E069
:100EC000AF0EB11C012F9501A301B701C7010E940C
:100ED000F5069601A401B701C7010E946A02A601A6
:100EE0004C575F4F9501B701C7010E941207A096AA
:100EF0000FB6F894DEBF0FBECDBFDF91CF911F912B
:100F00000F91FF90EF90DF90CF90BF90AF909F90A8
:100F10008F907F906F900895262F062E000C330B34
:100F200021503109322F330F230FDC01EDEFF7E0B1
:100F3000E21BF109A60FB11D0E9006940C920994C4
:100F40000E9007940C920E9007940C920E900794BA
:100F50000C920E9007940C920E9007940C920E90A7
:100F600007940C920E9007940C920E9007940C929A
:100F70000E9007940C920E9007940C920E9007948A
:100F80000C920E9007940C920E9007940C920E9077
:100F900007940C920E9007940C920E9007940C926A
:100FA0000E9007940C920E9007940C920E9007945A
:100FB0000C920E9007940C920E9007940C920E9047
:100FC00007940C920E9007940C920E9007940C923A
:100FD0000E9007940C920E9007940C920E9007942A
:100FE0000C920E9007940C920E9007940C920E9017
:100FF00007940C920E9007940C9208950F931F93F0
:10100000CF93DF93EC01142F888100E080FF07C0AD
:10101000242FAB01BE01CE010E94D005082F612F05
:10102000CE010E948C07002351F0412F110F550B68
:1010300041505109C40FD51F888180688883DF9192
:10104000CF911F910F910895CF93DF93440FEB0140
:10105000DC01EEE6F8E0E41BF109099409900D9239
:1010600009900D9209900D9209900D9209900D92A0
:1010700009900D9209900D9209900D9209900D9290
:1010800009900D9209900D9209900D9209900D9280
:1010900009900D9209900D9209900D9209900D9270
:1010A00009900D9209900D9209900D9209900D9260
:1010B00009900D9209900D9209900D9209900D9250
:1010C00009900D9209900D9209900D9209900D9240
:1010D00009900D9209900D9209900D92DF91CF9198
:1010E00008954F925F926F927F928F929F92AF92EC
:1010F000BF92CF92DF92EF92FF920F931F93CF9305
:10110000DF93CDB7DEB7C056D1090FB6F894DEBF76
:101110000FBECDBF4C012B015A0139016801F80106
:1011200010817601F4E0EF0EF11C012F9701AC0164
:10113000B501CE0101960E94F506A601BE016F5FC2
:101140007F4FCB010E949A029601AE014F5F5F4F25
:10115000B401C4010E946A029601AE014F5F5F4F65
:10116000B501C5010E946A029701A201B301CE0137
:1011700001960E9412079701A201B301C3010E94C8
:10118000F5069701A401B501CE0181960E94F506EE
:101190009601AE014F5D5F4FB201C2010E946A022B
:1011A0009701A501B401CE0181960E941207A60104
:1011B000B301C5010E949A029701AE014F5D5F4FD6
:1011C000B501C5010E94F5069701A501B401CE0144
:1011D0008F5B9F4F0E94F5069601AE014F5B5F4FFC
:1011E000B301C3010E946A029701A201B301C301C6
:1011F0000E94F506A601BE016F5F7F4FCE018F5B97
:101200009F4F0E949A029701AE014F5D5F4FBE0152
:101210006F5B7F4FCB010E94F5069701A401BE01D1
:101220006F5B7F4FCE0181960E94F5069601AE015D
:101230004F5F5F4FBE016F5D7F4FCB010E946A021F
:101240009701A201BE016F5D7F4FC2010E94F506AA
:10125000412FBE016F5B7F4FC4010E942408C05A1A
:10126000DF4F0FB6F894DEBF0FBECDBFDF91CF9139
:101270001F910F91FF90EF90DF90CF90BF90AF90B4
:101280009F908F907F906F905F904F9008954F92B6
:101290005F926F927F928F929F92AF92BF92CF9206
:1012A000DF92EF92FF920F931F93CF93DF93CDB70F
:1012B000DEB7A0970FB6F894DEBF0FBECDBF3C01DE
:1012C0002B017A0159016801F80110814601F4E00F
:1012D0008F0E911C012F9401AC01B701CE01019634
:1012E0000E94F506A601BE016F5F7F4FCB010E94F1
:1012F0009A029601AE014F5F5F4FB301C3010E9496
:101300006A029601AE014F5F5F4FB701C7010E94AD
:101310006A029401A201B501C5010E94F506A60169
:10132000B501CE0101960E949A029401A301BE016B
:101330006F5F7F4FCB010E94F5069401A701BE01AC
:101340006F5F7F4FCB010E94F5069401A301B701A7
:10135000C7010E94F5069601A701B201C2010E94D1
:101360006A029401AE014F5F5F4FB301C7010E9453
:10137000F5069601A701B501C5010E946A02940114
:10138000A201B501C5010E94F506412FBE016F5FA4
:101390007F4FC7010E942408A0960FB6F894DEBFC5
:1013A0000FBECDBFDF91CF911F910F91FF90EF90B6
:1013B000DF90CF90BF90AF909F908F907F906F9075
:1013C0005F904F900895CF92DF92FF920F931F93FB
:1013D000CF93DF93CDB7DEB7A0970FB6F894DEBFFB
:1013E0000FBECDBF6C018B0140E20E9424081C821D
:1013F0001B821A82198218861F821E821D821C86F9
:101400001B861A861986F80184A58D8785A58E8787
:1014100086A58F8787A5888B80A9898B81A98A8BD0
:1014200082A98B8B83A98C8B84A98D8B85A98E8BAC
:1014300086A98F8B87A9888F80AD898F81AD8A8F90
:1014400082AD8B8F83AD8C8F84AD8D8F85AD8E8F6C
:1014500086AD8F8F87AD88A320E2AE014F5F5F4FCF
:10146000BA01CA010E94D005F82E20E2AE014F5FFA
:101470005F4FB601C6010E94D005F80EF80180A9A1
:101480008D8781A98E8782A98F8783A9888B84A95C
:10149000898B85A98A8B86A98B8B87A98C8B80AD3C
:1014A0008D8B81AD8E8B82AD8F8B83AD888F84AD1C
:1014B000898F85AD8A8F86AD8B8F87AD8C8F18A273
:1014C0001F8E1E8E1D8E20E2AE014F5F5F4FBA0150
:1014D000CA010E94D005F80E20E2AE014F5F5F4FB7
:1014E000B601C6010E94D005F80EF80180A18983DB
:1014F00081A18A8382A18B8383A18C8384A18D8324
:1015000085A18E8386A18F8387A1888780A58987FF
:1015100081A58A8782A58B8783A58C87188A1F86D9
:101520001E861D861C8A1B8A1A8A198A188E1F8A93
:101530001E8A1D8A80AD898F81AD8A8F82AD8B8F87
:1015400083AD8C8F84AD8D8F85AD8E8F86AD8F8F63
:1015500087AD88A320E2AE014F5F5F4FB601C601A1
:101560000E94D005F80EF80184A1898385A18A83A1
:1015700086A18B8387A18C8380A58D8381A58E8393
:1015800082A58F8383A5888784A5898785A58A8777
:1015900086A58B8787A58C8734A93D8725A92E87AB
:1015A00096A99F8787A9888B40AD498B41AD4A8B0F
:1015B00042AD4B8B43AD4C8B44AD4D8B45AD4E8B0B
:1015C00046AD4F8B47AD488F398F2A8F9B8F8C8FBD
:1015D00080A18D8F81A18E8F82A18F8F83A188A3FF
:1015E00020E2AE014F5F5F4FB601C6010E94D005F9
:1015F000F80EF80184A5898385A58A8386A58B8347
:1016000087A58C8380A98D8381A98E8382A98F83EE
:1016100083A9888784A9898785A98A8786A98B87D2
:1016200087A98C87188A1F861E861D861C8A1B8A9E
:101630001A8A198A188E1F8A1E8A1D8A80A1898F8C
:1016400081A18A8F82A18B8F83A18C8F80A58D8FA2
:1016500081A58E8F82A58F8F83A588A320E2AE01FE
:101660004F5F5F4FB601C6010E94E302F81AF8010E
:1016700080A9898381A98A8382A98B8383A98C838A
:1016800084A98D8385A98E8386A98F8387A988875E
:1016900080AD898781AD8A8782AD8B8783AD8C874A
:1016A00084AD8D8785AD8E8786AD8F8787AD888B1E
:1016B0001C8A1B8A1A8A198A188E1F8A1E8A1D8AFA
:1016C00084A1898F85A18A8F86A18B8F87A18C8F1A
:1016D00084A58D8F85A58E8F86A58F8F87A588A3DE
:1016E00020E2AE014F5F5F4FB601C6010E94E302E8
:1016F000F81AF80184A9898385A98A8386A98B832E
:1017000087A98C8380AD8D8381AD8E8382AD8F83DD
:1017100083AD888784AD898785AD8A8786AD8B87C1
:1017200087AD8C8780A18D8781A18E8782A18F87CD
:1017300083A1888B84A1898B85A18A8B86A18B8BC1
:1017400087A18C8B80A58D8B81A58E8B82A58F8B9D
:1017500083A5888F1C8E1B8E1A8E198E80A98D8F63
:1017600081A98E8F82A98F8F83A988A320E2AE01E1
:101770004F5F5F4FB601C6010E94E302F81AF801FD
:1017800080AD898381AD8A8382AD8B8383AD8C8369
:1017900084AD8D8385AD8E8386AD8F8387AD88873D
:1017A0001C861B861A86198684A18D8785A18E8743
:1017B00086A18F8787A1888B80A5898B81A58A8B3D
:1017C00082A58B8B83A58C8B84A58D8B85A58E8B19
:1017D00086A58F8B87A5888F1C8E1B8E1A8E198EDF
:1017E00084A98D8F85A98E8F86A98F8F87A988A3BD
:1017F00020E2AE014F5F5F4FB601C6010E94E302D7
:10180000F81AF7FE20C020E24AEB51E0B601C6010B
:101810000E94D005F80EF7FCF6CFA0960FB6F8940C
:10182000DEBF0FBECDBFDF91CF911F910F91FF9013
:10183000DF90CF90089520E24AEB51E0B601C60157
:101840000E94E302F81AF110F6CF40E2B6018AEBEB
:1018500091E00E94D801813071F7DFCF5F926F92E3
:101860007F928F929F92AF92BF92CF92DF92EF9230
:10187000FF920F931F93CF93DF93CDB7DEB7C05482
:10188000D1090FB6F894DEBF0FBECDBF4C015B018E
:1018900090E29E012F5F3F4F6901F901292F1192BC
:1018A0002A95E9F781E089838E010F5D1F4FF801CA
:1018B00011929A95E9F789A3FB0150806C5F7F4FE5
:1018C000252DA601C6010E94D005652DC6010E94E6
:1018D000F30101977C0166246394712C22E0E216E7
:1018E000F104E4F4452DB801C4010E942408C05C51
:1018F000DF4F0FB6F894DEBF0FBECDBFDF91CF91A3
:101900001F910F91FF90EF90DF90CF90BF90AF901D
:101910009F908F907F906F905F900895A501B80180
:10192000C8010E949A02F70183E0F595E7958A9530
:10193000E1F7EC0DFD1DC70187709927930101C0E8
:10194000220F8A95EAF78081822331F09501A40164
:10195000B801C8010E946A02F1E0EF1AF108BECF97
:101960006F927F928F929F92AF92BF92CF92DF92AF
:10197000EF92FF920F931F93CF93DF93CDB7DEB714
:10198000C054D1090FB6F894DEBF0FBECDBF6C01B5
:101990003B017A014901F9011081612FCA010E94BE
:1019A00020028111A6C0A401B301CE0101960E94BC
:1019B0009A029401AE014F5F5F4FB601CE0181964E
:1019C0000E946A02A401BE016F5F7F4FCB010E949B
:1019D0009A029401A701B301C3010E946A02A40103
:1019E000B701C7010E949A025401F4E0AF0EB11C86
:1019F000012F9501A701B601C6010E9412079501AA
:101A0000A701B701C7010E9412079501A701B601FE
:101A1000C7010E94F5069401A701B601C6010E9404
:101A20006A029501A601B601C7010E94120795013D
:101A3000A701B601C6010E941207F601808180FF4E
:101A40006EC0212FA501B601C6010E94D005082F46
:101A5000612FC6010E948C07E12F012E000CFF0BA5
:101A60003197EC0DFD1D20E8029FC001112400817B
:101A7000082B0083A401B601C7010E949A02012F1E
:101A80009501AE014F5D5F4FB701C7010E94F5069A
:101A90009501AE014F5D5F4FB701C7010E94F5068A
:101AA0009501A701BE016F5D7F4FCB010E94F50636
:101AB0009401AE014F5D5F4FB601C6010E946A02FC
:101AC0009501AE014F5F5F4FB601CA010E94F50656
:101AD000412FB701C6010E942408412FB301C7015D
:101AE0000E942408412FBE016F5F7F4FC3010E94F7
:101AF0002408C05CDF4F0FB6F894DEBF0FBECDBF29
:101B0000DF91CF911F910F91FF90EF90DF90CF90D9
:101B1000BF90AF909F908F907F906F900895612FAE
:101B2000C6010E948C07A6CFDC01EAEBFDE0E61BB4
:101B3000F10909941D921D921D921D921D921D92F4
:101B40001D921D921D921D921D921D921D921D921D
:101B50001D921D921D921D921D921D921D921D920D
:101B60001D921D921D921D921D921D921D921D92FD
:101B70001D921D9208953F924F925F926F927F92B5
:101B80008F929F92AF92BF92CF92DF92EF92FF928D
:101B90000F931F93CF93DF93CDB7DEB7CC52D140D5
:101BA0000FB6F894DEBF0FBECDBFC55DDE4F998383
:101BB0008883CB52D1405B01CB5DDE4F5983488394
:101BC000C552D14069012701F7013080432DCE0174
:101BD00081960E942408232D032C000C330BC95D31
:101BE000DE4F39832883C752D1402A0D3B1DC75D84
:101BF000DE4F39832883C952D140432DB90181E496
:101C000090E08C0F9D1F80960E942408F701908021
:101C1000C114D10409F451C1492DB601CE018F5729
:101C20009F4F0E942408492DBE016F5D7F4F9E018A
:101C30002F5F3F4F6901C9010E94240881E4E82E0B
:101C4000F12CEC0EFD1E30E2E30EF11C492DB70124
:101C5000CE018F5B9F4F0E9424089201AE014F5727
:101C60005F4FB701CE0181960E949E02F201EC55B2
:101C7000FF4F0190F081E02D9201AE014F575F4F71
:101C8000B701CE01819609959201AE014F575F4F82
:101C9000BE016F5B7F4FC6010E949E02780142E049
:101CA000E41AF1081E141F040CF414C1CB5DDE4FBE
:101CB000E881F981C552D140808180958170CF5DE6
:101CC000DE4F8883C152D140CE5DDE4F1882C252B2
:101CD000D140CF5DDE4F88819981C152D14025E04E
:101CE000880F991F2A95E1F721E430E02C0F3D1F62
:101CF000280F391FCD5DDE4F39832883C352D14071
:101D000041E050E04C0F5D1F480F591FCB5DDE4F87
:101D100059834883C552D14066246394712CCF5DAA
:101D2000DE4F88819981C152D140681A790A65E0F5
:101D3000660C771C6A95E1F7E1E4F0E0EC0FFD1F1B
:101D4000E60DF71DCF5DDE4FF983E883C152D14028
:101D500021E030E02C0F3D1F620E731E8201CD5D2D
:101D6000DE4F28813981C352D140BF01C3010E9497
:101D70007108420134E0830E911C032D9401AE01E1
:101D80004F5F5F4FBE016F5D7F4FCE018F5F9E4FF4
:101D90000E94F5069201CF5DDE4F48815981C15204
:101DA000D140BE016F5F7E4FCB010E946A0292015B
:101DB000A501BE016F5F7E4FCB010E946A02632DB9
:101DC000CE018F5F9E4F0E942002882309F4E6C057
:101DD000632DCE018F5F9E4F0E94940D9201C75DCF
:101DE000DE4F48815981C952D140BE016F5F7E4F9D
:101DF000CB010E946A029201A301BE016F5F7E4F78
:101E0000CB010E946A028201CF5DDE4F28813981B9
:101E1000C152D140A301CD5DDE4F68817981C352AB
:101E2000D140CB5DDE4F88819981C552D1400E945F
:101E300047099201AE014F5F5E4FBE016F5B7F4F5E
:101E4000CE0101960E949E02432DBE016F5F7F4F1F
:101E5000C55DDE4F88819981CB52D1400E94240814
:101E6000432DBE016F5B7F4FC55DDE4F8881998139
:101E7000CB52D140C95DDE4F28813981C752D14054
:101E8000820F931F0E942408C45DDE4F0FB6F894A2
:101E9000DEBF0FBECDBFDF91CF911F910F91FF909D
:101EA000EF90DF90CF90BF90AF909F908F907F90FA
:101EB0006F905F904F903F900895692DCE018F579E
:101EC0009F4F0E94940D81E0CF57DF4F8883C15808
:101ED000D040A9CEF70113E0F595E7951A95E1F703
:101EE000CB5DDE4F88819981C552D140E80FF91F43
:101EF000C7018770992721E030E002C0220F331F0D
:101F00008A95E2F7C9019081982381E009F080E089
:101F100090E09C0175E0220F331F7A95E1F7E1E430
:101F20008E2E912C8C0E9D1E820E931E41E050E051
:101F30004C0F5D1F420F531FCD5DDE4F5983488309
:101F4000C352D140CC24C394D12CC81AD90AA5E0DD
:101F5000CC0CDD1CAA95E1F7B1E46B2E712C6C0E54
:101F60007D1E6C0C7D1C81E090E08C0F9D1FC80EC7
:101F7000D91E82019401B301C6010E947108930128
:101F8000A601B401CD5DDE4F88819981C352D14055
:101F90000E94470991E0E91AF10884CE6E0141EEF2
:101FA000C40ED11C432DBE016F5F7E4FC6010E943F
:101FB00024085E0151ECA50EB11C432DB401C501EE
:101FC0000E9424088E010F551F4F632DC8010E94E7
:101FD000940D81E0F80180837E01F1E8EF0EF11CA1
:101FE000632DC7010E94940D432DB501C6010E94C7
:101FF000D80181110AC0432DBE016F557F4FCE011C
:102000008F5F9E4F0E942408E9CEF601908190FDDB
:102010000AC0632DC6010E948C07432DB401C8017C
:102020000E94FE07E1CFF501908190FD08C0632D6D
:10203000C5010E948C07432DB401C701F1CF232DA8
:102040001816ECF4A501B601C6010E94E302632D47
:10205000C6010E948C07432DB701C8010E94D80118
:1020600087FF06C0232DA401B801C8010E94D00536
:10207000232DA701B801C8010E94E302CECFA6011B
:10208000B501C5010E94E302632DC5010E948C07C2
:10209000432DB801C7010E94D80187FF06C0232D38
:1020A000A401B701C7010E94D005232DA801B701E3
:1020B000C7010E94E302BFCFFC0101900020E9F7B5
:1020C0003197AF01481B590BBC0188E594E00C9493
:1020D0007D008F929F92AF92BF920F931F93CF93E9
:1020E000DF93CDB7DEB7A1970FB6F894DEBF0FBE72
:1020F000CDBF19A2423008F44AE08E010F5D1F4F98
:10210000842E912CB12CA12CA50194010E94CF18F2
:10211000E62FB901CA01EA30F4F4E05DD801EE938C
:102120008D01232B242B252B79F790E080E010974D
:1021300019F0CD010E945C10A1960FB6F894DEBF95
:102140000FBECDBFDF91CF911F910F91BF90AF9088
:102150009F908F900895E95CE1CFCF93DF930E9429
:102160005C10EC0184E792E00E945C108C0F9D1FD4
:10217000DF91CF9108950F931F93CF93DF93EC01DD
:1021800088819981009759F02A813B81261737076A
:1021900030F081E0DF91CF911F910F9108958B0175
:1021A0006F5F7F4F0E94941A009759F0998388833C
:1021B0001B830A832C813D81232B59F7FC0110825C
:1021C000E8CF80E0E7CFEF92FF920F931F93CF937A
:1021D000DF936115710541F480E0DF91CF911F918C
:1021E0000F91FF90EF90089541155105B1F07B01DB
:1021F000EC010C811D81040F151FB8010E94BB105A
:10220000882351F3288139818C819D81B701820F08
:10221000931F0E945A1B1D830C8381E0DECFCF9356
:10222000DF93EC0188819981009711F00E940B1ACD
:10223000198218821D821C821B821A82DF91CF9123
:102240000895CF93DF93EC01FB0101900020E9F7A3
:102250003197AF01461B570B0E94E310811103C059
:10226000CE010E940F11CE01DF91CF910895CF933F
:10227000DF93EC01FB0144815581608171810E94F3
:10228000E310811103C0CE010E940F11CE01DF9136
:10229000CF910895EF92FF920F931F93CF93DF9307
:1022A000EC017B018A01BA010E94BB1081110BC0B5
:1022B000CE010E940F11CE01DF91CF911F910F919E
:1022C000FF90EF9008951D830C83B7018881998159
:1022D0000E945A1BF0CFFB0101900020E9F73197D3
:1022E000AF01461B570B0C944A11FB01DC01119600
:1022F0001C921E9213961C921E92129715961C9277
:102300001E9214978617970749F0608171816115B5
:10231000710521F0448155810C944A110895FC0106
:10232000118210821382128215821482FB010190A5
:102330000020E9F73197AF01461B570B0C944A1167
:10234000FC0180819181009711F00C940B1A089583
:102350008F929F92AF92BF92CF92DF92EF92FF92B5
:102360000F931F93CF93DF938C017C01E60EF71E32
:10237000812C912C54019394E016F10609F198E018
:10238000C92ED12CC0E00E946000D82F0E940F17E8
:10239000A50194010E94F1182C2F30E0220F331F69
:1023A000CB01CD2FC170892B11F06170C62FC22BCC
:1023B00081E0C81AD10839F7F801C1938F01DCCF49
:1023C00081E090E0DF91CF911F910F91FF90EF900E
:1023D000DF90CF90BF90AF909F908F9008951F9205
:1023E0000F920FB60F9211242F933F938F939F93C9
:1023F000AF93BF938091540490915504A0915604DB
:10240000B09157043091530423E0230F2D3758F532
:102410000196A11DB11D2093530480935404909301
:102420005504A0935604B093570480914F049091A3
:102430005004A0915104B09152040196A11DB11D08
:1024400080934F0490935004A0935104B09352048E
:10245000BF91AF919F918F913F912F910F900FBEA0
:102460000F901F90189526E8230F0296A11DB11D0D
:10247000D2CF1F920F920FB60F9211242F933F933A
:102480004F935F936F937F938F939F93AF93BF937C
:10249000EF93FF9388E594E00E942D01FF91EF9167
:1024A000BF91AF919F918F917F916F915F914F916C
:1024B0003F912F910F900FBE0F901F9018951F9274
:1024C0000F920FB60F9211242F938F939F93EF9338
:1024D000FF93E0916804F09169048081E0916E04BB
:1024E000F0916F0482FD1BC09081809171048F5F19
:1024F0008F7320917204821741F0E0917104F0E033
:10250000E85AFB4F958F80937104FF91EF919F9153
:102510008F912F910F900FBE0F901F901895808173
:10252000F4CFE8E5F4E01382128288EE93E0A0E0B5
:10253000B0E084839583A683B78386E692E0918397
:10254000808385EC90E09587848784EC90E0978782
:10255000868780EC90E0918B808B81EC90E0938B70
:10256000828B82EC90E0958B848B86EC90E0978B4D
:10257000868B118E128E138E148E66E772E085EFB5
:1025800094E00C948F11CF93DF93CDB7DEB7C45A8C
:10259000D1090FB6F894DEBF0FBECDBF789484B5D5
:1025A000826084BD84B5816084BD85B5826085BD4F
:1025B00085B5816085BD80916E00816080936E00DD
:1025C00010928100809181008260809381008091CF
:1025D0008100816080938100809180008160809380
:1025E00080008091B10084608093B1008091B00040
:1025F00081608093B00080917A00846080937A003B
:1026000080917A00826080937A0080917A00816064
:1026100080937A0080917A00806880937A0010928B
:10262000C100E0916804F091690482E08083E09148
:102630006404F09165041082E0916604F0916704EF
:102640008FEC808310927004E0916C04F0916D0423
:1026500086E08083E0916A04F0916B048081806160
:102660008083E0916A04F0916B04808188608083AC
:10267000E0916A04F0916B04808180688083E0912E
:102680006A04F0916B0480818F7D808388EA91E1F8
:102690009093F9038093F80370E4972E9E012F59CD
:1026A0003F4F5901CE0101966C0145E16EE271E0A8
:1026B000CE018F579F4F0E94B403892B09F440C06D
:1026C000CF55DF4FB982A882C15AD040E1E4F0E093
:1026D000EC0FFD1FCD55DF4FF983E883C35AD0407F
:1026E0002AE031E0AF01B501CE018F579F4F0E9424
:1026F000A10621E030E0882311F030E020E0220F35
:10270000331FE1EAF0E0EC0FFD1FE20FF31F408101
:1027100051816AE0E62E61E0F62E02EA10E030E038
:1027200020E06EE471E0C6010E94BB0D68E2C601C4
:102730000E942002882309F4B4C09A949110B5CF66
:1027400066E772E0C5010E948F1100ED13E0F80109
:1027500081918F01803138F441E050E067E772E009
:10276000C5010E94E310F8013197808123961FAEC6
:102770001EAE239725961FAE1EAE259727961FAE39
:102780001EAE279740E1B60190E00E949218B60174
:10279000CE018F5B9F4F0E946B1127964EAD5FADB0
:1027A000279723966EAD7FAD2397C5010E94E31056
:1027B000CE018F5B9F4F0E94A011F3E0083F1F07DF
:1027C00031F669E772E0C6010E948F11B501C601BA
:1027D0000E94371169E872E00E9421116BE972E0F2
:1027E0000E94211162EA72E00E94211166EB72E000
:1027F0000E9421116BEB72E00E942111BC01CE01FD
:102800008F579F4F0E947511C6010E94A011C501EC
:102810000E94A01110E000E00E947100780128E7FA
:10282000E21A2CEEF20A27010F2C000C660877083A
:102830006415750586059705A8F0CB57DF4F4881CD
:102840005981C558D040CF57DF4F68817981C15831
:10285000D04088E594E00E947D0084E792E00E94E9
:102860005C10870188E594E00E940D01892BA1F29C
:1028700066E772E0CE018F5B9F4F0E948F110E942E
:10288000CD0097FD28C08A30910529F189831A82ED
:1028900041E050E0B601CE018F5B9F4F0E94E310F4
:1028A000EECFAE014F575F4F65E170E08EE094E0F0
:1028B0000E94BC01A60164E170E080ED93E00E94FB
:1028C000BC01AE014B5E5F4F64E170E084EE93E0CB
:1028D0000E94BC0135CF23966EAC7FAC2397279620
:1028E0000EAD1FAD27976114710429F07301011516
:1028F000110509F06EC027968EAD9FAD279743E274
:10290000442E44E0542E10E000E08035910509F497
:102910009CC08EEB92E00E94AD10CE018F5B9F4F6A
:102920000E94A011CE018F579F4F0E94A011CF553A
:10293000DF4FB982A882C15AD04021E430E02C0F89
:102940003D1FCD55DF4F39832883C35AD0404EE019
:1029500054E060E270E0C5010E94BC0143E254E033
:1029600060E270E0C6010E94BC0143E454E060E212
:1029700070E0CE0181960E94BC0126EB31E0AE01F1
:102980004F5B5F4FB501C5010E94A106182F8091D2
:10299000F8039091F903892B09F4A4C0E12FF0E02A
:1029A000EE0FFF1F81EA90E08C0F9D1FE80FF91FCB
:1029B0008080918040E26AEB71E0C4010E94B40320
:1029C000892B09F091C082E493E00E94AD1032C1DE
:1029D000740147013FEF831A930AF7018081082EA3
:1029E000000C990B0E947E18892B91F70150110958
:1029F000060D171DF8018081082E000C990B0E940E
:102A00007E18892B31F00E151F0518F001501109A1
:102A1000F1CF0F5F1F4FA8014E195F0927965FAFD7
:102A20004EAF27976E147F0420F4B701C3010E94B4
:102A3000511B2396EEADFFAD239727968EAD9FAD2C
:102A40002797E80FF91F108256CF4801F2E08F0E4A
:102A5000911C34018016910610F03801840166E75C
:102A600072E0C6010E948F112796EEACFFAC27974B
:102A70006E147F0400F50E151F0508F478012396E7
:102A8000EEADFFAD2397EE0DFF1D10811082239652
:102A90006EAD7FAD2397660D771DC601611571057B
:102AA000F1F00E946B1123968EAD9FAD2397E80E37
:102AB000F91EF701108340E150E070E060E0898189
:102AC0009A810E946717F20161932F01C6010E944B
:102AD000A01184010035110509F0B7CF1ECF0E9467
:102AE0000F11E1CF912C812CE1E0F0E0112311F0E6
:102AF000F0E0E0E0EE0FFF1F21EA30E02C0F3D1F79
:102B0000E20FF31F4081518126EBE22E21E0F22EED
:102B100001E011E09401B601C6010E94BB0DA601BF
:102B200060E270E0CE018F579F4F0E94BC0160E4CD
:102B3000C6010E942002811146CF8EEF92E00E94D2
:102B4000AD108E010F571F4F780130E2E30EF11CDC
:102B5000F80161918F0170E090E080E040E10E9417
:102B6000691080E793E00E945C100E151F0581F745
:102B700084E792E00E945C10882799278C199D09B0
:102B800020E230E07901EC18FD080FEF1FEF36016D
:102B9000F8E06F0E711C48E050E0F601DC01AE0F6A
:102BA000BF1FAF71BB2721E830E02C0F3D1FA20FE4
:102BB000B31F2C9121936E167F0681F7D60130E06A
:102BC00020E09D90692D6F70260F311DEA17FB07DD
:102BD000C1F7021713074CF418E0F601AAEFB3E0AF
:102BE00001900D921A95E1F7890141505109A9F61A
:102BF0000196E816F90679F683E293E00E94AD109B
:102C00000AEF13E082E0E82E84E0F82EF8016191EB
:102C10008F0170E090E080E040E10E94691080E761
:102C200093E00E945C10E016F10681F784E792E0E1
:102C30000E945C100E94710060934B0470934C04DE
:102C400080934D0490934E0400E010E00E947100C8
:102C5000AB01BC0180914B0490914C04A0914D04B8
:102C6000B0914E0488519C4FAF4FBF4F4817590742
:102C70006A077B0708F477C080934B0490934C0459
:102C8000A0934D04B0934E040E946000CF57DF4FD5
:102C900019821882C158D040CD57DF4F198218824F
:102CA000C358D040CB57DF4F19821882C558D04047
:102CB0004AE0B6010E948718B601CE018F579F4F98
:102CC0000E946B1164E673E0C6010E948F11BE0181
:102CD0006F577F4FC6010E943711BC01C5010E948A
:102CE0007511C6010E94A01162E773E0C6010E943F
:102CF0008F1165EF74E0C6010E94371169E873E037
:102D00000E942111B5010E94371169E872E00E940A
:102D100021116BE972E00E94211162EA72E00E94C7
:102D2000211162EA73E00E9421116BEB72E00E94B4
:102D30002111BC01CE018F5B9F4F0E947511C6010E
:102D40000E94A01184EB93E00E94AD10CE018F5B36
:102D50009F4F0E94A011C5010E94A011CE018F5764
:102D60009F4F0E94A0110115110509F46FCF0E9419
:102D70001901882309F46ACF0E94000067CF85EF0C
:102D800094E00C94A0118F929F92AF92BF92CF9239
:102D9000DF92EF92FF92CF93DF93EC01688179810C
:102DA0008A819B81611571058105910521F464E299
:102DB00079ED8BE597E02DE133EF41E050E00E94A3
:102DC000F11849015A019B01AC01A7EAB1E40E9444
:102DD00010196B017C01ACEEB4EFA50194010E94C7
:102DE0001E19C60ED71EE81EF91EF7FE06C081E0AA
:102DF000C81AD108E10880E8F80AC882D982EA82B4
:102E0000FB82C701B6019F77DF91CF91FF90EF90D2
:102E1000DF90CF90BF90AF909F908F9008958F924A
:102E20009F92AF92BF92CF92DF92EF92FF9260910A
:102E300000017091010180910201909103016115DF
:102E400071058105910521F464E279ED8BE597E048
:102E50002DE133EF41E050E00E94F11849015A01A1
:102E60009B01AC01A7EAB1E40E9410196B017C013F
:102E7000ACEEB4EFA50194010E941E19C60ED71E38
:102E8000E81EF91EF7FE06C081E0C81AD108E10865
:102E900080E8F80AC0920001D0920101E09202019C
:102EA000F0920301C701B6019F77FF90EF90DF908A
:102EB000CF90BF90AF909F908F9008956093000146
:102EC0007093010180930201909303010895B0E093
:102ED000A0E0EDE6F7E10C9424195C016B017A01A6
:102EE0006115710519F0FB0191838083E114F104F0
:102EF00051F0C7010297839730F040E030E020E0C6
:102F000090E072C05E01E5012196F5011081812FEC
:102F100090E00E947E18892BA9F71D3201F52196B9
:102F2000F501118101E0E114F10409F4DAC0F0E1E6
:102F3000EF16F10409F082C0103359F488818F7DB7
:102F4000883509F076C0198122960260F0E1EF2EF3
:102F5000F12C812C912CA12C88E0B82E8CC01B3236
:102F600021F4E5012296F501118100E0DCCFEAE0D1
:102F7000EE16F10409F4BBC0F0E1EF16F10409F01C
:102F80006DC0E7CF78E0E72EF12C812C912CA12C9D
:102F900060E1B62E70C03FE9310F3A3128F439EACA
:102FA000332E80C021E09AC0302F3170C114D1047B
:102FB00031F0222309F12197F601D183C08327FF45
:102FC00021C060E070E080E090E8311104C06FEF54
:102FD0007FEF8FEF9FE722E230E03093FC042093F5
:102FE000FB04462F372F282F642F732F822FCDB746
:102FF000DEB7E1E10C94401901FF04C02297F6010D
:10300000D183C083332341F090958095709561956D
:103010007F4F8F4F9F4FE5CF97FFE3CF82E290E046
:103020009093FC048093FB046FEF7FEF8FEF9FE79B
:10303000D8CF10E3E114F10409F4A4CF28E0E2169C
:10304000F10409F4A2CF0CF092CF812C912CA12C89
:10305000E0E4BE2E82E0E816F10469F060E070E082
:1030600080E090E897010F2C000C440B550B0E9458
:10307000CF1849015A0120E060E070E0CB01270140
:103080000F2C000C66087708FE0150ED352E310E2E
:1030900039E0331540F43FEB310F3A3108F07BCF84
:1030A00049EC342E310E3E141F040CF07DCF27FD69
:1030B00015C086169706A806B90678F0A3019201F6
:1030C0000E94BF18630D711D811D911D6130710536
:1030D000810520E8920708F465CF2FEF2196108133
:1030E000D3CF103309F42ACF2AE0E22EF12C9CEC46
:1030F000892E982CA82C9CE0B92EBDCF91110C9450
:10310000AC18803219F089508550C8F70895BB2754
:103110004A3031F4992322F4BDE2909581959F4F76
:103120000C949318BB27FB015527AA27880F991FDA
:10313000AA1FA41710F0A41B83955051B9F7A05DE6
:10314000AA3308F0A95DA193009779F7B111B19363
:103150001192CB010C94AF18992788270895DC01B0
:10316000FC01672F71917723E1F7329704C07C91BE
:103170006D9370836291AE17BF07C8F30895DB01AA
:103180008F939F930E941019BF91AF91A29F800DC2
:10319000911DA39F900DB29F900D11240895A1E25F
:1031A0001A2EAA1BBB1BFD010DC0AA1FBB1FEE1FC1
:1031B000FF1FA217B307E407F50720F0A21BB30B0C
:1031C000E40BF50B661F771F881F991F1A9469F788
:1031D00060957095809590959B01AC01BD01CF01E4
:1031E0000895052E97FB1EF400940E94081957FDC0
:1031F00007D00E94CF1807FC03D04EF40C94081996
:1032000050954095309521953F4F4F4F5F4F089512
:1032100090958095709561957F4F8F4F9F4F089542
:103220000E945A19A59F900DB49F900DA49F800DE8
:10323000911D11240895B7FF0C9410190E941019C4
:10324000821B930B08952F923F924F925F926F9241
:103250007F928F929F92AF92BF92CF92DF92EF9226
:10326000FF920F931F93CF93DF93CDB7DEB7CA1BA7
:10327000DB0B0FB6F894DEBF0FBECDBF09942A88D2
:10328000398848885F846E847D848C849B84AA847A
:10329000B984C884DF80EE80FD800C811B81AA8107
:1032A000B981CE0FD11D0FB6F894DEBF0FBECDBFD2
:1032B000ED010895A29FB001B39FC001A39F700DBF
:1032C000811D1124911DB29F700D811D1124911D2E
:1032D0000895EE0FFF1F0590F491E02D09940F93D0
:1032E0001F93CF93DF938230910510F482E090E03A
:1032F000E091FF04F091000530E020E0B0E0A0E0B4
:10330000309799F42115310509F44AC0281B390B6F
:1033100024303105D8F58A819B816115710589F1C9
:10332000FB0193838283FE0111C0408151810281A0
:10333000138148175907E0F04817590799F4109777
:1033400061F012960C93129713961C933296CF014C
:10335000DF91CF911F910F9108950093FF04109377
:103360000005F4CF2115310551F04217530738F00D
:10337000A901DB019A01BD01DF01F801C1CFEF0115
:10338000F9CF909300058093FF04CDCFFE01E20FAB
:10339000F31F819391932250310939832883D7CF2A
:1033A0002091FD043091FE04232B41F4209106016D
:1033B000309107013093FE042093FD042091040115
:1033C000309105012115310541F42DB73EB74091EB
:1033D000080150910901241B350BE091FD04F09187
:1033E000FE04E217F307A0F42E1B3F0B2817390742
:1033F00078F0AC014E5F5F4F2417350748F04E0F51
:103400005F1F5093FE044093FD04819391939FCFDF
:10341000F0E0E0E09CCFCF93DF930097E9F0FC0170
:10342000329713821282A091FF04B0910005ED0142
:1034300030E020E01097A1F420813181820F931FAA
:103440002091FD043091FE042817390709F061C06E
:10345000F093FE04E093FD04DF91CF910895EA011B
:10346000CE17DF07E8F54A815B819E0141155105C2
:10347000B1F7E901FB83EA8349915991C40FD51F44
:10348000EC17FD0761F4808191810296840F951FEE
:10349000E90199838883828193819B838A83F0E009
:1034A000E0E012968D919C9113970097B9F52D91BC
:1034B0003C911197CD010296820F931F2091FD043C
:1034C0003091FE042817390739F6309751F51092DC
:1034D00000051092FF04B093FE04A093FD04BCCF3E
:1034E000D383C28340815181840F951FC817D907A8
:1034F00061F44E5F5F4F88819981480F591F518356
:1035000040838A819B81938382832115310509F051
:10351000B0CFF0930005E093FF049ECFFD01DC01E6
:10352000C0CF13821282D7CFB0E0A0E0EAE9FAE17F
:103530000C9425198C01009751F4CB010E946F194E
:103540008C01C801CDB7DEB7E0E10C944119FC0154
:10355000E60FF71F9C0122503109E217F30708F428
:103560009DC0D901CD91DC911197C617D70798F06E
:10357000C530D10530F3CE0104978617970708F3BD
:10358000C61BD70B2297C193D1936D937C93CF0128
:103590000E940B1AD6CF5B01AC1ABD0A4C018C0EEF
:1035A0009D1EA091FF04B0910005512C412CF12CDF
:1035B000E12C109731F58091FD049091FE0488155F
:1035C000990509F05CC04616570608F058C080916E
:1035D000040190910501009741F48DB79EB7409189
:1035E000080150910901841B950BE817F90708F0B1
:1035F00055C0F093FE04E093FD04F90171836083EC
:10360000A0CF8D919C91119712966C901297139662
:103610007C901397A815B90559F56C0142E0C40ECA
:10362000D11CCA14DB0420F1AC014A195B09DA0190
:103630001296159780F06282738251834083D9017C
:103640006D937C93E114F10471F0D7011396FC9310
:10365000EE93129776CF22968C0F9D1FF9019183DE
:103660008083F301EFCFF0930005E093FF0469CF6F
:103670004816590608F42C017D01D3019ACFCB01DD
:103680000E946F197C01009749F0AE01B8010E94B9
:10369000511BC8010E940B1A870153CF10E000E0B4
:1036A00050CFFB01DC0102C001900D92415050400F
:1036B000D8F70895FB01DC0101900D920020E1F79D
:1036C000089510E0C5E3D0E004C0FE010E9469192E
:0C36D0002196C633D107C9F7F894FFCF4C
:1036DC00010000000000010580001414A100FFFF90
:1036EC00FF7FFFFFFFFFFFFFFFFFFFFFFFFFFFFF5E
:1036FC00FFFF000000000000000000000000572247
:10370C0075CAD3AE27F9C8F4010000000000000010
:10371C00000001000000000000000000000082FC1E
:10372C00CB13B98BC368896964462873F58E68B569
:10373C00964A32FBC57A3751230412C9DC597D9461
:10374C0068315528A623000000000000000000008E
:10375C00000000000000000000000000000045FA1E
:10376C0065C5ADD4D4819FF8AC658B7ABD54FCBED5
:10377C00971C000000000000000000000000B00CCE
:10378C002E0C36073B0420200001FFFFFFFFFFFF3C
:10379C00FFFFFFFFFFFF0000000000000000000023
:1037AC00000001000000FFFFFFFF512563FCC2CAAF
:1037BC00B9F3849E17A7ADFAE6BCFFFFFFFFFFFF2E
:1037CC00FFFF00000000FFFFFFFF96C298D84539AD
:1037DC00A1F4A033EB2D817D0377F240A463E5E6E1
:1037EC00BCF847422CE1F2D1176BF551BF3768405A
:1037FC00B6CBCE5E316B5733CE2B169E0F7C4AEB7D
:10380C00E78E9B7F1AFEE242E34F4B60D2273E3C91
:10381C00CE3BF6B053CCB0061D65BC86987655BD34
:10382C00EBB3E7933AAAD835C65AB00C2E0C360730
:10383C00E309000000004F017D00AA009C010D016E
:10384C00B900FF000D0A0030007B227075626C69B4
:10385C00634B6579223A202200222C20226D696369
:10386C00726F4E616D65223A202200736F75726320
:10387C006500222C2022747970654D657373616725
:10388C0065223A2022004B45595300227D00457297
:10389C00726F723A204C6120636C6176652070C344
:1038AC00BA626C69636120726563696269646120E4
:1038BC006E6F207469656E6520656C2074616D6136
:1038CC00C3B16F20657370657261646F2E00436CB9
:1038DC0061766520636F6D706172746964612063D9
:1038EC006F6D706C6574612063616C63756C616481
:1038FC00613A00436C617665206F7074696D697A0A
:10390C006164612073656C656363696F6E6164618A
:10391C003A004572726F722063616C63756C616EF4
:10392C00646F20636C61766520636F6D7061727477
:10393C00696461004461746F206D6963726F313A20
:10394C0020007B22656E637279707465644D6573BB
:10395C0073616765223A202200222C202264656361
:10396C007279707465644D657373616765223A2072
:10397C002200454E43525950544544204D45535313
:10398C00414745004D4943524F20313A20456E2066
:10399C006C6F6F70207072696E636970616C00007F
:00000001FF
