:100000000C9436000C945E000C945E000C945E0020
:100010000C945E000C945E000C945E000C945E00E8
:100020000C945E000C945E000C945E000C945E00D8
:100030000C945E000C945E000C945E000C945E00C8
:100040000C94FE010C945E000C946E020C94480219
:100050000C945E000C945E000C945E000C945E00A8
:100060000C945E000C945E00A0028C0511241FBE4F
:10007000CFEFD8E0DEBFCDBF23E0AAE2B3E001C0FE
:100080001D92A73EB207E1F713E0A0E0B1E0E2E085
:10009000F0E102C005900D92AA32B107D9F710E045
:1000A000C5E3D0E004C02197FE010E94FC05C433E3
:1000B000D107C9F70E94DB020C94F4070C940000EE
:1000C000AF92BF92CF92DF92EF92FF920F931F9366
:1000D000CF93DF936C017B018B01040F151FEB01A4
:1000E0005E01AE18BF08C017D10759F06991D6015B
:1000F000ED91FC910190F081E02DC6010995892BCD
:1001000079F7C501DF91CF911F910F91FF90EF908B
:10011000DF90CF90BF90AF900895FC01538D448D38
:10012000252F30E0842F90E0821B930B541710F0A2
:10013000CF96089501970895FC01918D828D9817AF
:1001400061F0A28DAE0FBF2FB11D5D968C91928D87
:100150009F5F9F73928F90E008958FEF9FEF0895B8
:10016000FC01918D828D981731F0828DE80FF11D81
:10017000858D90E008958FEF9FEF0895FC01918D9C
:10018000228D892F90E0805C9F4F821B91098F7395
:100190009927089580E493E00E94BE0021E0892B16
:1001A00009F420E0822F089580E090E0892B29F067
:1001B0000E94CA0081110C9400000895FC01A48DD6
:1001C000A80FB92FB11DA35ABF4F2C91848D90E079
:1001D00001968F739927848FA689B7892C93A0895C
:1001E000B1898C91837080648C93938D848D9813E6
:1001F00006C00288F389E02D80818F7D8083089579
:10020000EF92FF920F931F93CF93DF93EC0181E066
:10021000888F9B8D8C8D98131AC0E889F98980810D
:1002200085FF15C09FB7F894EE89FF896083E88940
:10023000F98980818370806480839FBF81E090E032
:10024000DF91CF911F910F91FF90EF900895F62EBF
:100250000B8D10E00F5F1F4F0F731127E02E8C8D59
:100260008E110CC00FB607FCFACFE889F98980819E
:1002700085FFF5CFCE010E94DE00F1CFEB8DEC0FB4
:10028000FD2FF11DE35AFF4FF0829FB7F8940B8FBB
:10029000EA89FB8980818062CFCFCF93DF93EC0125
:1002A000888D8823B9F0AA89BB89E889F9898C915E
:1002B00085FD03C0808186FD0DC00FB607FCF7CF1A
:1002C0008C9185FFF2CF808185FFEDCFCE010E941A
:1002D000DE00E9CFDF91CF910895FC01808191810B
:1002E000009711F00C949E0608950F931F93CF93DF
:1002F000DF93EC0188819981009759F02A813B8135
:100300002617370730F081E0DF91CF911F910F91D1
:1003100008958B016F5F7F4F0E942707009759F068
:10032000998388831B830A832C813D81232B59F772
:10033000FC011082E8CF80E0E7CFEF92FF920F93AD
:100340001F93CF93DF936115710541F480E0DF9136
:10035000CF911F910F91FF90EF9008954115510596
:10036000B1F07B01EC010C811D81040F151FB80158
:100370000E947501882351F3288139818C819D81E8
:10038000B701820F931F0E94ED071D830C8381E04C
:10039000DECFEF92FF920F931F93CF93DF93EC0189
:1003A0007B018A01BA010E9475012881398181117E
:1003B00014C02115310519F0C9010E949E06198249
:1003C00018821D821C821B821A82CE01DF91CF917E
:1003D0001F910F91FF90EF9008951D830C83B7013B
:1003E000C9010E94ED07F1CFFB0101900020E9F760
:1003F0003197AF01461B570B0C94C9011F920F9206
:100400000FB60F9211242F933F938F939F93AF9327
:10041000BF9380913C0390913D03A0913E03B09126
:100420003F0330913B0323E0230F2D3758F501960E
:10043000A11DB11D20933B0380933C0390933D038A
:10044000A0933E03B0933F0380913703909138030C
:10045000A0913903B0913A030196A11DB11D80937B
:10046000370390933803A0933903B0933A03BF91B5
:10047000AF919F918F913F912F910F900FBE0F9051
:100480001F90189526E8230F0296A11DB11DD2CF0B
:100490001F920F920FB60F9211242F933F934F93F9
:1004A0005F936F937F938F939F93AF93BF93EF93DC
:1004B000FF9380E493E00E94DE00FF91EF91BF91F3
:1004C000AF919F918F917F916F915F914F913F91EC
:1004D0002F910F900FBE0F901F9018951F920F92A3
:1004E0000FB60F9211242F938F939F93EF93FF9347
:1004F000E0915003F09151038081E0915603F09117
:10050000570382FD1BC09081809159038F5F8F73C9
:1005100020915A03821741F0E0915903F0E0E05C2A
:10052000FC4F958F80935903FF91EF919F918F918D
:100530002F910F900FBE0F901F9018958081F4CFD0
:10054000E0E4F3E01382128288EE93E0A0E0B0E0F2
:1005500084839583A683B7838AE093E09183808325
:1005600085EC90E09587848784EC90E09787868778
:1005700080EC90E0918B808B81EC90E0938B828B70
:1005800082EC90E0958B848B86EC90E0978B868B49
:10059000118E128E138E148EEDEDF3E01182108207
:1005A000138212821582148250E040E068E273E008
:1005B000CF010C94C901CF93DF93CDB7DEB7EF978E
:1005C0000FB6F894DEBF0FBECDBF789484B58260BD
:1005D00084BD84B5816084BD85B5826085BD85B5E7
:1005E000816085BD80916E00816080936E00109265
:1005F00081008091810082608093810080918100E0
:100600008160809381008091800081608093800070
:100610008091B10084608093B1008091B0008160CE
:100620008093B00080917A00846080937A008091FA
:100630007A00826080937A0080917A008160809352
:100640007A0080917A00806880937A001092C100CD
:10065000E0915003F091510382E08083E0914C03DC
:10066000F0914D031082E0914E03F0914F038FEC17
:10067000808310925803E0915403F091550386E073
:100680008083E0915203F0915303808180618083E5
:10069000E0915203F0915303808188608083E09160
:1006A0005203F0915303808180688083E09152036C
:1006B000F091530380818F7D80832FB7F8948091D0
:1006C0003C0390913D03A0913E03B0913F032FBFA7
:1006D0008093330390933403A0933503B093360390
:1006E0008E010D5E1F4F1EA70DA7085F1F4F18AB91
:1006F0000FA78FB7F89440913C0350913D03609150
:100700003E0370913F038FBF809133039091340378
:10071000A0913503B091360388519C4FAF4FBF4F26
:10072000481759076A077B0708F4E9C18093330328
:1007300090933403A0933503B093360380E4809301
:100740007C0080917A00806480937A0080917A00A6
:1007500086FDFCCF80917800909179001C8A1B8ADD
:100760001E8A1D8A188E1F8A4AE0BE016F5F7F4F66
:100770000E949005BE016F5F7F4FCE0143960E949D
:10078000F4011A8219821C821B821E821D824DE096
:1007900050E068E173E0CE0101960E94C9014F89E3
:1007A000588D6B897C89CE0101960E949D01811133
:1007B0000CC089819A81009711F00E949E061A82CE
:1007C00019821E821D821C821B8218A61FA21AA6D5
:1007D00019A61CA61BA669817A816115710531F0E5
:1007E0004D815E81CE0187960E94C901CE0101969E
:1007F0000E946D01CE0143960E946D011AA219A2BA
:100800001CA21BA21EA21DA26FA178A561157105D5
:1008100031F04BA55CA5CE0181960E94C9010DA1C6
:100820001EA11AAB09AB68E273E08DED93E00E9464
:10083000F401312C212C09A91AA9201631060CF03B
:1008400042C1ADA5BEA5E8E01D92EA95E9F74DA12C
:100850005EA129A13AA1C101FE01739609A91AA9B5
:1008600008171907A9F08417950730F4D901A80FC4
:10087000B91F2115310521F410922A03AAE2B3E031
:100880006C91619301960FA518A9E017F10731F754
:100890008B897C889D88AE880F89188DF98CBA8CDD
:1008A000FFEE5DEC4BEA70E9E8E796E5E92E24E31C
:1008B0002EAF92E161E0392F38278EAD78269E2445
:1008C000AE26C02EC726242F21278F2C8526BF2693
:1008D0006D3009F4B2C0A62FAF27ABABE526F12CE3
:1008E00087010A5F1D4F1BAF0AAFEF27F0E0DF0162
:1008F000AA5FBD4FBDAFACAFF92FF727832F90E0B4
:100900008A5F9D4FDC01EC91872D90E08A5F9D4FBF
:10091000DC01DC90892D90E08A5F9D4FDC016C90BA
:100920008A2D90E08A5F9D4FDC017C900C2D10E0B9
:100930000A5F1D4FD8019C9030E02A5F3D4FD901DE
:100940004C90882D90E08A5F9D4FDC010C918B2D9F
:1009500090E08A5F9D4FDC011C91C62CC724A92C16
:10096000AC24842C8A24E72CE924F12C292D24257D
:1009700030E04624512C902F9127BE2EB926BD2D54
:10098000BB25BFAF8E2F8127A82FB0E0BDABACAB8E
:100990008E2F8D25A82FB0E0BFABAEABD026AD2DEE
:1009A000B0E0B9AFA8AFD12CD601AA5FBE4F8C91F1
:1009B00088258625D701AA5FBE4FFC90F8247F24A6
:1009C0002A5F3E4FD9012C918226982492012A5FFA
:1009D0003E4FD9012C91A226292F30E02A5F3E4FAD
:1009E000D9019C91BFAD9B2709272CA93DA92A5F5E
:1009F0003E4FD9012C91BFAD2B2712272EA93FA91D
:100A00002A5F3E4FD9019C91BFADB927FB2EFE2630
:100A100028AD39AD2A5F3E4FD9019C91B926E72F09
:100A20007EAD7427EBA86F5F5EAFACADBDAD5C91E2
:100A3000942FAAADBBAD4C913ECF30932B03709257
:100A40002C0390922D03A0922E03C0922F0320938B
:100A5000300380923103B09232030BE213E0F801CD
:100A600081918F011C8E1B8E1E8E1D8E18A21F8ED3
:100A700040E1BE016F5F7F4F90E00E949B05BE0189
:100A80006F5F7F4FCE014B960E94F4014F8D58A1AE
:100A90006B8D7C8D8DED93E00E949D01CE014B9678
:100AA0000E946D0141E050E064E273E08DED93E05F
:100AB0000E949D0163E373E06017710781F678E09F
:100AC000270E311CB8CECE0181960E946D01409157
:100AD000E1035091E2036091DD037091DE0380E455
:100AE00093E00E94600042E050E066E273E080E440
:100AF00093E00E946000CE0187960E946D0180E025
:100B000090E0892B09F4F5CD0E94CA00882309F4EE
:100B1000F0CD0E940000EDCD8DED93E00C946D01C1
:100B2000BB274A3031F4992322F4BDE29095819598
:100B30009F4F0C949C05BB27FB015527AA27880FC4
:100B4000991FAA1FA41710F0A41B83955051B9F741
:100B5000A05DAA3308F0A95DA193009779F7B111C0
:100B6000B1931192CB010C94B505DC01FC01672F08
:100B700071917723E1F7329704C07C916D93708374
:100B80006291AE17BF07C8F308952F923F924F921C
:100B90005F926F927F928F929F92AF92BF92CF920D
:100BA000DF92EF92FF920F931F93CF93DF93CDB716
:100BB000DEB7CA1BDB0B0FB6F894DEBF0FBECDBF8E
:100BC00009942A88398848885F846E847D848C845F
:100BD0009B84AA84B984C884DF80EE80FD800C8168
:100BE0001B81AA81B981CE0FD11D0FB6F894DEBF4B
:100BF0000FBECDBFED010895EE0FFF1F0590F491DC
:100C0000E02D09940F931F93CF93DF9382309105CA
:100C100010F482E090E0E091E503F091E60330E02B
:100C200020E0B0E0A0E0309799F42115310509F4F7
:100C30004AC0281B390B24303105D8F58A819B81A5
:100C40006115710589F1FB0193838283FE0111C057
:100C5000408151810281138148175907E0F04817FC
:100C6000590799F4109761F012960C931297139606
:100C70001C933296CF01DF91CF911F910F91089570
:100C80000093E5031093E603F4CF2115310551F0ED
:100C90004217530738F0A901DB019A01BD01DF01BA
:100CA000F801C1CFEF01F9CF9093E6038093E503FC
:100CB000CDCFFE01E20FF31F8193919322503109B2
:100CC00039832883D7CF2091E3033091E403232B8A
:100CD00041F420910201309103013093E403209309
:100CE000E30320910001309101012115310541F408
:100CF0002DB73EB74091040150910501241B350BDF
:100D0000E091E303F091E403E217F307A0F42E1B54
:100D10003F0B2817390778F0AC014E5F5F4F24175F
:100D2000350748F04E0F5F1F5093E4034093E303F1
:100D3000819391939FCFF0E0E0E09CCFCF93DF933E
:100D40000097E9F0FC01329713821282A091E5032B
:100D5000B091E603ED0130E020E01097A1F420818E
:100D60003181820F931F2091E3033091E403281710
:100D7000390709F061C0F093E403E093E303DF91E6
:100D8000CF910895EA01CE17DF07E8F54A815B812C
:100D90009E0141155105B1F7E901FB83EA834991B1
:100DA0005991C40FD51FEC17FD0761F48081918123
:100DB0000296840F951FE90199838883828193812C
:100DC0009B838A83F0E0E0E012968D919C911397CB
:100DD0000097B9F52D913C911197CD010296820FA4
:100DE000931F2091E3033091E4032817390739F664
:100DF000309751F51092E6031092E503B093E403A7
:100E0000A093E303BCCFD383C28340815181840F7D
:100E1000951FC817D90761F44E5F5F4F888199818C
:100E2000480F591F518340838A819B81938382831A
:100E30002115310509F0B0CFF093E603E093E50307
:100E40009ECFFD01DC01C0CF13821282D7CFB0E06C
:100E5000A0E0EDE2F7E00C94C7058C01009751F497
:100E6000CB010E9402068C01C801CDB7DEB7E0E1DC
:100E70000C94E305FC01E60FF71F9C012250310999
:100E8000E217F30708F49DC0D901CD91DC911197C9
:100E9000C617D70798F0C530D10530F3CE010497B7
:100EA0008617970708F3C61BD70B2297C193D193D8
:100EB0006D937C93CF010E949E06D6CF5B01AC1A46
:100EC000BD0A4C018C0E9D1EA091E503B091E60376
:100ED000512C412CF12CE12C109731F58091E3033A
:100EE0009091E4038815990509F05CC046165706F1
:100EF00008F058C08091000190910101009741F4E1
:100F00008DB79EB74091040150910501841B950B4C
:100F1000E817F90708F055C0F093E403E093E30302
:100F2000F90171836083A0CF8D919C9111971296E6
:100F30006C90129713967C901397A815B90559F5E4
:100F40006C0142E0C40ED11CCA14DB0420F1AC01D8
:100F50004A195B09DA011296159780F06282738252
:100F600051834083D9016D937C93E114F10471F0B6
:100F7000D7011396FC93EE93129776CF22968C0F9F
:100F80009D1FF90191838083F301EFCFF093E60376
:100F9000E093E50369CF4816590608F42C017D015A
:100FA000D3019ACFCB010E9402067C01009749F041
:100FB000AE01B8010E94E407C8010E949E068701A5
:100FC00053CF10E000E050CFFB01DC0102C00190E4
:100FD0000D9241505040D8F70895FB01DC0101907B
:100FE0000D920020E1F7089510E0C5E3D0E004C0C1
:100FF000FE010E94FC052196C633D107C9F7F8947B
:02100000FFCF20
:101002000000E703800000020406080A0C0E10121A
:101012001416181A1C1E20222426282A2C2E30329E
:101022003436383A3C3E40424446484A4C4E50528E
:101032005456585A5C5E60626466686A6C6E70727E
:101042007476787A7C7E80828486888A8C8E90926E
:101052009496989A9C9EA0A2A4A6A8AAACAEB0B25E
:10106200B4B6B8BABCBEC0C2C4C6C8CACCCED0D24E
:10107200D4D6D8DADCDEE0E2E4E6E8EAECEEF0F23E
:10108200F4F6F8FAFCFE1B191F1D131117150B09B4
:101092000F0D030107053B393F3D333137352B290E
:1010A2002F2D232127255B595F5D535157554B49FE
:1010B2004F4D434147457B797F7D737177756B69EE
:1010C2006F6D636167659B999F9D939197958B89DE
:1010D2008F8D83818785BBB9BFBDB3B1B7B5ABA9CE
:1010E200AFADA3A1A7A5DBD9DFDDD3D1D7D5CBC9BE
:1010F200CFCDC3C1C7C5FBF9FFFDF3F1F7F5EBE9AE
:10110200EFEDE3E1E7E577747A79717F7B707C73C9
:101112007276787E7D7547444A49414F4B404C4335
:101122004246484E4D45A7A4AAA9A1AFABA0ACA385
:10113200A2A6A8AEADA597949A99919F9B909C93D5
:101142009296989E9D9517141A19111F1B101C1325
:101152001216181E1D15F7F4FAF9F1FFFBF0FCF355
:10116200F2F6F8FEFDF5B7B4BAB9B1BFBBB0BCB385
:10117200B2B6B8BEBDB507040A09010F0B000C03D5
:101182000206080E0D05C7C4CAC9C1CFCBC0CCC365
:10119200C2C6C8CECDC537343A39313F3B303C3375
:1011A2003236383E3D3527242A29212F2B202C2365
:1011B2002226282E2D2567646A69616F6B606C6335
:1011C2006266686E6D6587848A89818F8B808C8365
:1011D2008286888E8D85E7E4EAE9E1EFEBE0ECE3D5
:1011E200E2E6E8EEEDE5D7D4DAD9D1DFDBD0DCD325
:1011F200D2D6D8DEDDD557545A59515F5B505C5375
:101202005256585E5D5500000000000160008D00DE
:101212004D01BE009C00B0004461746F206D696393
:0A122200726F313A20000D0A00003F
:00000001FF
