:100000000C9436000C945E000C945E000C945E0020
:100010000C945E000C945E000C945E000C945E00E8
:100020000C945E000C945E000C945E000C945E00D8
:100030000C945E000C945E000C945E000C945E00C8
:100040000C9458020C945E000C94C8020C94A2020A
:100050000C945E000C945E000C945E000C945E00A8
:100060000C945E000C945E00FA02510611241FBE2F
:10007000CFEFD8E0DEBFCDBF23E0A4E3B3E001C003
:100080001D92AE3EB207E1F713E0A0E0B1E0E0E080
:10009000F4E102C005900D92A433B107D9F710E046
:1000A000C5E3D0E004C02197FE010E94FB07C433E2
:1000B000D107C9F70E9431030C94F3090C94000096
:1000C0000895AF92BF92CF92DF92EF92FF920F937B
:1000D0001F93CF93DF936C017B018B01040F151FDE
:1000E000EB015E01AE18BF08C017D10759F0699146
:1000F000D601ED91FC910190F081E02DC6010995AA
:10010000892B79F7C501DF91CF911F910F91FF9056
:10011000EF90DF90CF90BF90AF900895FC01538D8A
:10012000448D252F30E0842F90E0821B930B5417D1
:1001300010F0CF96089501970895FC01918D828D5E
:10014000981761F0A28DAE0FBF2FB11D5D968C91F7
:10015000928D9F5F9F73928F90E008958FEF9FEF36
:1001600008952FB7F8948091410390914203A09194
:100170004303B09144032FBF80934D0390934E03EC
:10018000A0934F03B093500385E493E00E949D0039
:1001900097FF26C02FB7F8948091410390914203B6
:1001A000A0914303B09144032FBF40914D03509160
:1001B0004E0360914F0370915003841B950BA60B67
:1001C000B70B4091490350914A0360914B037091E2
:1001D0004C0384179507A607B707B0F28FEF9FEF80
:1001E0000895FC01918D828D981731F0828DE80F72
:1001F000F11D858D90E008958FEF9FEF0895FC012C
:10020000918D228D892F90E0805C9F4F821B9109F8
:100210008F739927089585E493E00E94FF0021E001
:10022000892B09F420E0822F089580E090E0892B4B
:1002300029F00E940B0181110C9400000895FC012B
:10024000A48DA80FB92FB11DA35ABF4F2C91848D37
:1002500090E001968F739927848FA689B7892C9394
:10026000A089B1898C91837080648C93938D848DE7
:10027000981306C00288F389E02D80818F7D8083EA
:100280000895EF92FF920F931F93CF93DF93EC01AA
:1002900081E0888F9B8D8C8D98131AC0E889F9892D
:1002A000808185FF15C09FB7F894EE89FF89608330
:1002B000E889F98980818370806480839FBF81E0B1
:1002C00090E0DF91CF911F910F91FF90EF900895F3
:1002D000F62E0B8D10E00F5F1F4F0F731127E02ECE
:1002E0008C8D8E110CC00FB607FCFACFE889F98906
:1002F000808185FFF5CFCE010E941F01F1CFEB8DEC
:10030000EC0FFD2FF11DE35AFF4FF0829FB7F894D9
:100310000B8FEA89FB8980818062CFCFCF93DF93F7
:10032000EC01888D8823B9F0AA89BB89E889F9890D
:100330008C9185FD03C0808186FD0DC00FB607FC42
:10034000F7CF8C9185FFF2CF808185FFEDCFCE0175
:100350000E941F01E9CFDF91CF91089542E050E064
:1003600068E173E085E493E00C946100CF93DF9340
:10037000EC0188819981009711F00E949D081982F3
:1003800018821D821C821B821A82DF91CF910895F0
:100390000F931F93CF93DF938C01EB01FC018081BE
:1003A00091810097E1F06881798161157105A9F06B
:1003B000428153812C813D814217530770F00E9486
:1003C000EC098C819D81F801958384831D821C82B8
:1003D000DF91CF911F910F9108950E949D08888110
:1003E0009981F801918380838A819B8193838283A1
:1003F0008C819D8195838483198218821B821A8245
:10040000E5CFFC0180819181009711F00C949D084B
:1004100008950F931F93CF93DF93EC018881998107
:10042000009759F02A813B812617370730F081E089
:10043000DF91CF911F910F9108958B016F5F7F4FD7
:100440000E942609009759F0998388831B830A83A9
:100450002C813D81232B59F7FC011082E8CF80E0ED
:10046000E7CFEF92FF920F931F93CF93DF93EC01AF
:100470007B018A01BA010E94090281110BC0CE01E1
:100480000E94B601CE01DF91CF911F910F91FF9095
:10049000EF9008951D830C83B701888199810E9494
:1004A000EC09F0CF50E040E06AE173E00C943102D7
:1004B0001F920F920FB60F9211242F933F938F9399
:1004C0009F93AF93BF938091410390914203A0917A
:1004D0004303B09144033091400323E0230F2D37B1
:1004E00058F50196A11DB11D20934003809341034F
:1004F00090934203A0934303B093440380913C0341
:1005000090913D03A0913E03B0913F030196A11D40
:10051000B11D80933C0390933D03A0933E03B093A1
:100520003F03BF91AF919F918F913F912F910F907A
:100530000FBE0F901F90189526E8230F0296A11D5D
:10054000B11DD2CF1F920F920FB60F9211242F938D
:100550003F934F935F936F937F938F939F93AF934B
:10056000BF93EF93FF9385E493E00E941F01FF91F7
:10057000EF91BF91AF919F918F917F916F915F911B
:100580004F913F912F910F900FBE0F901F90189594
:100590001F920F920FB60F9211242F938F939F9358
:1005A000EF93FF93E0915503F09156038081E09122
:1005B0005B03F0915C0382FD1BC0908180915E0320
:1005C0008F5F8F7320915F03821741F0E0915E038C
:1005D000F0E0EB5BFC4F958F80935E03FF91EF9112
:1005E0009F918F912F910F900FBE0F901F90189594
:1005F0008081F4CFE5E4F3E01382128288EE93E089
:10060000A0E0B0E084839583A683B7838AE093E07B
:100610009183808385EC90E09587848784EC90E0DB
:100620009787868780EC90E0918B808B81EC90E0BF
:10063000938B828B82EC90E0958B848B86EC90E0A0
:10064000978B868B118E128E138E148EE2EEF3E052
:10065000118210821382128215821482CF010C94AF
:100660005202CF93DF93CDB7DEB7E1970FB6F89480
:10067000DEBF0FBECDBF789484B5826084BD84B5E3
:10068000816084BD85B5826085BD85B5816085BD8D
:1006900080916E00816080936E0010928100809145
:1006A00081008260809381008091810081608093CD
:1006B0008100809180008160809380008091B100F2
:1006C00084608093B1008091B00081608093B0001D
:1006D00080917A00846080937A0080917A008260B1
:1006E00080937A0080917A00816080937A00809173
:1006F0007A00806880937A001092C100E0915503DF
:10070000F091560382E08083E0915103F09152030F
:100710001082E0915303F09154038FEC8083109288
:100720005D03E0915903F0915A0386E08083E091E4
:100730005703F0915803808180618083E0915703D3
:10074000F0915803808188608083E0915703F09195
:100750005803808180688083E0915703F0915803AB
:1007600080818F7D80839E012F5F3F4F290185E42B
:1007700093E00E94FF00892B09F486C21C8E1B8E19
:100780001E8E1D8E18A21F8ECE014B960E94520205
:100790000E94B1000F8D18A197FD1AC08A309105F3
:1007A000B9F089831A820F5F1F4FB801CE014B96B3
:1007B0000E940902882361F32B8D3C8D8F8D98A1B7
:1007C000B201820F931F0E94EC0918A30F8FE0CF94
:1007D0001A8219821C821B821E821D82C2010E9403
:1007E0005202EF8CF8A0E114F10409F10E151F0577
:1007F00008F47801EB8DFC8DEE0DFF1D1081108249
:100800006B8D7C8D6115710509F4C9C1FB010190E7
:100810000020E9F73197AF01461B570BC2010E9438
:1008200031028B8D9C8DE80EF91ED7011C93B2010D
:10083000CE014B960E94C801C2010E940102188A93
:100840001F861A8A198A1C8A1B8A6B8D7C8D6115FA
:10085000710531F04F8D58A1CE010F960E943102E3
:100860001E8A1D8A188E1F8A1A8E198ECE014596F1
:100870000E9452021AA219A209A11AA18B899C896D
:100880000817190708F0D5C1F20128E011922A953E
:10089000E9F7420169A07AA038E1630E711C680192
:1008A00042E0C40ED11C5801C016D10610F056010A
:1008B00068011A8619861C861B861E861D86CE0137
:1008C00009960E945202EB88FC88CE14DF0420F5C2
:1008D000AE14BF0408F47501EF85F889EE0DFF1D15
:1008E000B08010826F8578896C0D7D1D6115710552
:1008F00009F459C1FB0101900020E9F73197AF01DC
:10090000461B570BCE0109960E9431028F859889AC
:10091000E80EF91ED701BC9240E150E070E060E0C3
:1009200089859A850E945506F40161934F01CE0195
:1009300009960E9401020D5F1F4F6016710609F0B3
:10094000AECF22E190E9E92E98E786E53DECD32E83
:1009500034E34BEAC42EFFEEF9AB41E048ABB8A854
:1009600069A9B626F32EFC248D25E82FF0E0EA5F76
:10097000FD4FE081B62FB9278B2F90E08A5F9D4F06
:10098000DC01FC912E2529ABB8A9BF5FB8AB3D2D8A
:100990008B2D9E2D2C2DBD3009F00AC179817C252F
:1009A0006A816D259B8189275C815E254D814F255C
:1009B0003E813E272F812F279885A9A99A27B8A97C
:1009C000B150B8ABBB2309F4F6C0082F072710E0DD
:1009D0000A5F1E4FD8010C9110E00A5F1E4FD8012C
:1009E0009C90052F062710E00A5F1E4FD8010C913E
:1009F00010E00A5F1E4FD8018C90172F1925A62EE4
:100A0000A824082F09255825622F642770E06A5F03
:100A10007E4FDB016C9170E06A5F7E4FDB018C9151
:100A2000692F632770E06A5F7E4FDB016C9170E095
:100A30006A5F7E4FDB016C91342E3826232E2626EA
:100A40002827492F4627812F8A25B02FB827BDA3F5
:100A50006B2E65269A2D9027692F70E07FA36EA3D9
:100A6000902F9527A92FB0E0B9A7A8A75127652FE8
:100A700070E07BA76AA7932D9225322F3927742E19
:100A80007326522D5227A52FB0E0BDA7ACA7622F29
:100A9000642770E04325A42FB0E0BFA7AEA788A8C5
:100AA0008B24B9A9BE25BBA3FC24FCA24E2F50E089
:100AB0004A5F5D4FDA01BC90BD24EF2FF0E0EA5FA2
:100AC000FD4F90809824FB01EA5FFE4FE081E7250F
:100AD0002E27E22FF0E0EA5FFD4F7081BBA17B275C
:100AE000EEA5FFA5EA5FFE4FE081E327F0E0EA5FB5
:100AF000FD4F60816F25E82FF0E0EA5FFE4FE08157
:100B0000E6251E27E12FF0E0EA5FFD4F80818B256F
:100B1000EEA1FFA1EA5FFE4FE081E625AE26EA2DB9
:100B2000F0E0EA5FFD4F50815925E8A5F9A5EA5F9D
:100B3000FE4FE0816E266026E62DF0E0EA5FFD4F75
:100B400040814E25EAA5FBA5EA5FFE4FE081FDA1AD
:100B5000EF27F0E0EA5FFD4F30813C25E92FF0E020
:100B6000EA5FFE4FE081E7253E26E32DF0E0EA5FF5
:100B7000FD4F20812D25ECA5FDA5EA5FFE4FE0810C
:100B8000E7252E26E22DF0E0EA5FFD4F90819825C3
:100B900089AAF601FE2CE92CDCA0CB2E10CFC201D5
:100BA0000E94B6013ECECE0109960E94B601AECE9D
:100BB000EF2C6F01D4CE7093340360933503809390
:100BC000360350933703409338033093390320930F
:100BD0003A0390933B0384E3E82E83E0F82ED70199
:100BE0008D917D018823D1F089871A86098D1A8D10
:100BF0000F5F1F4FB801CE0145960E94090288235E
:100C000069F02D893E89898D9A8DBE01675F7F4F7E
:100C1000820F931F0E94EC091A8F098FBCE3EB1619
:100C2000B3E0FB06E1F6E9A1FAA17796FAA3E9A3FE
:100C300023CEBE016B5E7F4F82EE93E00E94C8011F
:100C4000CE0145960E940102CE010F960E9401023C
:100C500047E150E06BE173E085E493E00E946100BE
:100C60000E94AE014091E6035091E7036091E203D8
:100C70007091E30385E493E00E9461000E94AE015D
:100C8000CE014B960E94010220E030E0232B09F4B4
:100C90006ECD0E940B01882309F469CD0E940000EB
:100CA00066CD82EE93E00C940102B0E0A0E0EBE5AB
:100CB000F6E00C94B6075C016B017A0161157105D1
:100CC00019F0FB0191838083E114F10451F0C70115
:100CD0000297839730F040E030E020E090E072C06F
:100CE0005E01E5012196F5011081812F90E00E94BF
:100CF0006C07892BA9F71D3201F52196F5011181A9
:100D000001E0E114F10409F4DAC0F0E1EF16F104B6
:100D100009F082C0103359F488818F7D883509F03D
:100D200076C0198122960260F0E1EF2EF12C812C21
:100D3000912CA12C88E0B82E8CC01B3221F4E50147
:100D40002296F501118100E0DCCFEAE0EE16F10415
:100D500009F4BBC0F0E1EF16F10409F06DC0E7CF74
:100D600078E0E72EF12C812C912CA12C60E1B62E9D
:100D700070C03FE9310F3A3128F439EA332E80C090
:100D800021E09AC0302F3170C114D10431F02223F8
:100D900009F12197F601D183C08327FF21C060E0CC
:100DA00070E080E090E8311104C06FEF7FEF8FEFCB
:100DB0009FE722E230E03093E9032093E803462FD7
:100DC000372F282F642F732F822FCDB7DEB7E1E1A5
:100DD0000C94D20701FF04C02297F601D183C0838F
:100DE000332341F090958095709561957F4F8F4F9B
:100DF0009F4FE5CF97FFE3CF82E290E09093E90326
:100E00008093E8036FEF7FEF8FEF9FE7D8CF10E37A
:100E1000E114F10409F4A4CF28E0E216F10409F486
:100E2000A2CF0CF092CF812C912CA12CE0E4BE2E0D
:100E300082E0E816F10469F060E070E080E090E89C
:100E400097010F2C000C440B550B0E948807490199
:100E50005A0120E060E070E0CB0127010F2C000C6C
:100E600066087708FE0150ED352E310E39E0331556
:100E700040F43FEB310F3A3108F07BCF49EC342E90
:100E8000310E3E141F040CF07DCF27FD15C08616D1
:100E90009706A806B90678F0A30192010E94780788
:100EA000630D711D811D911D61307105810520E863
:100EB000920708F465CF2FEF21961081D3CF10331E
:100EC00009F42ACF2AE0E22EF12C9CEC892E982CF2
:100ED000A82C9CE0B92EBDCF91110C9475078032DF
:100EE00019F089508550C8F70895992788270895E3
:100EF000DB018F939F930E94AA07BF91AF91A29F9E
:100F0000800D911DA39F900DB29F900D1124089507
:100F1000A1E21A2EAA1BBB1BFD010DC0AA1FBB1FFD
:100F2000EE1FFF1FA217B307E407F50720F0A21B6F
:100F3000B30BE40BF50B661F771F881F991F1A94DC
:100F400069F760957095809590959B01AC01BD0106
:100F5000CF0108950E94EC07A59F900DB49F900DBE
:100F6000A49F800D911D112408952F923F924F92BE
:100F70005F926F927F928F929F92AF92BF92CF9229
:100F8000DF92EF92FF920F931F93CF93DF93CDB732
:100F9000DEB7CA1BDB0B0FB6F894DEBF0FBECDBFAA
:100FA00009942A88398848885F846E847D848C847B
:100FB0009B84AA84B984C884DF80EE80FD800C8184
:100FC0001B81AA81B981CE0FD11D0FB6F894DEBF67
:100FD0000FBECDBFED010895A29FB001B39FC00128
:100FE000A39F700D811D1124911DB29F700D811D55
:100FF0001124911D0895EE0FFF1F0590F491E02D2F
:1010000009940F931F93CF93DF938230910510F4CF
:1010100082E090E0E091EC03F091ED0330E020E01D
:10102000B0E0A0E0309799F42115310509F44AC0E9
:10103000281B390B24303105D8F58A819B81611535
:10104000710589F1FB0193838283FE0111C0408108
:1010500051810281138148175907E0F04817590759
:1010600099F4109761F012960C93129713961C93B3
:101070003296CF01DF91CF911F910F910895009388
:10108000EC031093ED03F4CF2115310551F0421715
:10109000530738F0A901DB019A01BD01DF01F80116
:1010A000C1CFEF01F9CF9093ED038093EC03CDCF47
:1010B000FE01E20FF31F819391932250310939838E
:1010C0002883D7CF2091EA033091EB03232B41F4FF
:1010D00020910201309103013093EB032093EA0346
:1010E00020910001309101012115310541F42DB706
:1010F0003EB74091040150910501241B350BE0914E
:10110000EA03F091EB03E217F307A0F42E1B3F0B69
:101110002817390778F0AC014E5F5F4F2417350769
:1011200048F04E0F5F1F5093EB034093EA03819307
:1011300091939FCFF0E0E0E09CCFCF93DF930097B7
:10114000E9F0FC01329713821282A091EC03B09176
:10115000ED03ED0130E020E01097A1F42081318112
:10116000820F931F2091EA033091EB032817390770
:1011700009F061C0F093EB03E093EA03DF91CF91B4
:101180000895EA01CE17DF07E8F54A815B819E01E9
:1011900041155105B1F7E901FB83EA834991599162
:1011A000C40FD51FEC17FD0761F480819181029671
:1011B000840F951FE90199838883828193819B83A2
:1011C0008A83F0E0E0E012968D919C91139700974E
:1011D000B9F52D913C911197CD010296820F931F85
:1011E0002091EA033091EB032817390739F630973D
:1011F00051F51092ED031092EC03B093EB03A09322
:10120000EA03BCCFD383C28340815181840F951FF1
:10121000C817D90761F44E5F5F4F88819981480FE5
:10122000591F518340838A819B8193838283211537
:10123000310509F0B0CFF093ED03E093EC039ECFBE
:10124000FD01DC01C0CF13821282D7CFB0E0A0E055
:10125000ECE2F9E00C94B7078C01009751F4CB0154
:101260000E9401088C01C801CDB7DEB7E0E10C9403
:10127000D307FC01E60FF71F9C0122503109E2174A
:10128000F30708F49DC0D901CD91DC911197C617E1
:10129000D70798F0C530D10530F3CE0104978617F3
:1012A000970708F3C61BD70B2297C193D1936D9371
:1012B0007C93CF010E949D08D6CF5B01AC1ABD0A7A
:1012C0004C018C0E9D1EA091EC03B091ED03512CAE
:1012D000412CF12CE12C109731F58091EA0390918B
:1012E000EB038815990509F05CC04616570608F00F
:1012F00058C08091000190910101009741F48DB791
:101300009EB74091040150910501841B950BE8178D
:10131000F90708F055C0F093EB03E093EA03F901F5
:1013200071836083A0CF8D919C91119712966C90E0
:10133000129713967C901397A815B90559F56C016F
:1013400042E0C40ED11CCA14DB0420F1AC014A19DE
:101350005B09DA011296159780F0628273825183DD
:101360004083D9016D937C93E114F10471F0D701AE
:101370001396FC93EE93129776CF22968C0F9D1FB7
:10138000F90191838083F301EFCFF093ED03E093B4
:10139000EC0369CF4816590608F42C017D01D301EE
:1013A0009ACFCB010E9401087C01009749F0AE0161
:1013B000B8010E94E309C8010E949D08870153CF2C
:1013C00010E000E050CFFB01DC0102C001900D9263
:1013D00041505040D8F70895FB01DC0101900D9277
:1013E0000020E1F7089510E0C5E3D0E004C0FE015D
:1013F0000E94FB072196C633D107C9F7F894FFCFA7
:101400000000EE03800000020406080A0C0E101211
:101410001416181A1C1E20222426282A2C2E30329C
:101420003436383A3C3E40424446484A4C4E50528C
:101430005456585A5C5E60626466686A6C6E70727C
:101440007476787A7C7E80828486888A8C8E90926C
:101450009496989A9C9EA0A2A4A6A8AAACAEB0B25C
:10146000B4B6B8BABCBEC0C2C4C6C8CACCCED0D24C
:10147000D4D6D8DADCDEE0E2E4E6E8EAECEEF0F23C
:10148000F4F6F8FAFCFE1B191F1D131117150B09B2
:101490000F0D030107053B393F3D333137352B290C
:1014A0002F2D232127255B595F5D535157554B49FC
:1014B0004F4D434147457B797F7D737177756B69EC
:1014C0006F6D636167659B999F9D939197958B89DC
:1014D0008F8D83818785BBB9BFBDB3B1B7B5ABA9CC
:1014E000AFADA3A1A7A5DBD9DFDDD3D1D7D5CBC9BC
:1014F000CFCDC3C1C7C5FBF9FFFDF3F1F7F5EBE9AC
:10150000EFEDE3E1E7E577747A79717F7B707C73C7
:101510007276787E7D7547444A49414F4B404C4333
:101520004246484E4D45A7A4AAA9A1AFABA0ACA383
:10153000A2A6A8AEADA597949A99919F9B909C93D3
:101540009296989E9D9517141A19111F1B101C1323
:101550001216181E1D15F7F4FAF9F1FFFBF0FCF353
:10156000F2F6F8FEFDF5B7B4BAB9B1BFBBB0BCB383
:10157000B2B6B8BEBDB507040A09010F0B000C03D3
:101580000206080E0D05C7C4CAC9C1CFCBC0CCC363
:10159000C2C6C8CECDC537343A39313F3B303C3373
:1015A0003236383E3D3527242A29212F2B202C2363
:1015B0002226282E2D2567646A69616F6B606C6333
:1015C0006266686E6D6587848A89818F8B808C8363
:1015D0008286888E8D85E7E4EAE9E1EFEBE0ECE3D3
:1015E000E2E6E8EEEDE5D7D4DAD9D1DFDBD0DCD323
:1015F000D2D6D8DEDDD557545A59515F5B505C5373
:101600005256585E5D5500000000410161008E0099
:101610008E01FF009D00F1000D0A004D656E7361A3
:101620006A6520446573656E637269707461646F86
:041630003A2000005C
:00000001FF
