:100000000C9436000C945E000C945E000C945E0020
:100010000C945E000C945E000C945E000C945E00E8
:100020000C945E000C945E000C945E000C945E00D8
:100030000C945E000C945E000C945E000C945E00C8
:100040000C9451100C945E000C94C1100C949B10F5
:100050000C945E000C945E000C945E000C945E00A8
:100060000C945E000C945E00F310461811241FBE21
:10007000CFEFD8E0DEBFCDBF15E0A0E0B1E0ECE708
:10008000FAE302C005900D92A232B107D9F726E03B
:10009000A2E2B5E001C01D92A735B207E1F710E07A
:1000A000C5E3D0E004C02197FE010E940D1BC433BC
:1000B000D107C9F70E9425110C94311D0C94000042
:1000C0000895AF92BF92CF92DF92EF92FF920F937B
:1000D0001F93CF93DF936C017B018B01040F151FDE
:1000E000EB015E01AE18BF08C017D10759F0699146
:1000F000D601ED91FC910190F081E02DC6010995AA
:10010000892B79F7C501DF91CF911F910F91FF9056
:10011000EF90DF90CF90BF90AF900895FC01538D8A
:10012000448D252F30E0842F90E0821B930B5417D1
:1001300010F0CF96089501970895FC01918D828D5E
:10014000981761F0A28DAE0FBF2FB11D5D968C91F7
:10015000928D9F5F9F73928F90E008958FEF9FEF36
:1001600008952FB7F8948091AA059091AB05A091BE
:10017000AC05B091AD052FBF8093B6059093B70540
:10018000A093B805B093B9058EEA95E00E949D0052
:1001900097FF26C02FB7F8948091AA059091AB05E0
:1001A000A091AC05B091AD052FBF4091B60550911F
:1001B000B7056091B8057091B905841B950BA60B26
:1001C000B70B4091B2055091B3056091B4057091A1
:1001D000B50584179507A607B707B0F28FEF9FEF15
:1001E0000895FC01918D828D981731F0828DE80F72
:1001F000F11D858D90E008958FEF9FEF0895FC012C
:10020000918D228D892F90E0805C9F4F821B9109F8
:100210008F73992708958EEA95E00E94FF0021E0F0
:10022000892B09F420E0822F089580E090E0892B4B
:1002300029F00E940B0181110C9400000895FC012B
:10024000A48DA80FB92FB11DA35ABF4F2C91848D37
:1002500090E001968F739927848FA689B7892C9394
:10026000A089B1898C91837080648C93938D848DE7
:10027000981306C00288F389E02D80818F7D8083EA
:100280000895EF92FF920F931F93CF93DF93EC01AA
:1002900081E0888F9B8D8C8D98131AC0E889F9892D
:1002A000808185FF15C09FB7F894EE89FF89608330
:1002B000E889F98980818370806480839FBF81E0B1
:1002C00090E0DF91CF911F910F91FF90EF900895F3
:1002D000F62E0B8D10E00F5F1F4F0F731127E02ECE
:1002E0008C8D8E110CC00FB607FCFACFE889F98906
:1002F000808185FFF5CFCE010E941F01F1CFEB8DEC
:10030000EC0FFD2FF11DE35AFF4FF0829FB7F894D9
:100310000B8FEA89FB8980818062CFCFCF93DF93F7
:10032000EC01888D8823B9F0AA89BB89E889F9890D
:100330008C9185FD03C0808186FD0DC00FB607FC42
:10034000F7CF8C9185FFF2CF808185FFEDCFCE0175
:100350000E941F01E9CFDF91CF910895CF93DF93E2
:10036000DC0190E0EB012197292F092E000C330BC3
:10037000261737071CF0DF91CF910895FE01E21B8D
:10038000F30BE40FF51F80812A0F3B1FF9018083D7
:100390009F5FEACFFC014150042E000C550B47FF34
:1003A00002C080E00895DF01A40FB51F2C91DB018E
:1003B000A40FB51F9C91921730F041505109291795
:1003C00070F78FEF089581E008956150062E000CBC
:1003D000770B262F67FD08C061507109FC01E60FFD
:1003E000F71F31813323A9F32F5FC9F0022E000CD0
:1003F000330B820F931FFC013197908180E09111A4
:100400000BC02150310993E0220F331F9A95E1F779
:10041000820F932F911D089596958F5FF0CF90E0F6
:1004200080E00895282FFC0190E08E2F821B861714
:1004300024F081E0911180E008958191982BF5CF0F
:10044000CF93DF93FC01DB01EA0190E0892F392F84
:10045000492F51E060E0C50FD41F0D901A90019C08
:10046000900D811D341F63956517B8F3A51BB40B60
:100470009193982F832F342F5395521758F3522F5F
:10048000C20FD41F60E00D901A90019C900D811D49
:10049000341F63956517B8F3C50FD41F9193982F38
:1004A000832F342F5A95A51BB40B541759F79193EA
:1004B0001124DF91CF910895EF92FF920F931F9334
:1004C000CF93DF93CDB7DEB7C054D1090FB6F89400
:1004D000DEBF0FBECDBF7C018901F9012081CE01B5
:1004E00001960E942002F801E655FF4F0190F0812D
:1004F000E02DBE016F5F7F4FC7010995C05CDF4FE4
:100500000FB6F894DEBF0FBECDBFDF91CF911F9124
:100510000F91FF90EF9008959A01AB010C945C024B
:10052000AF92BF92CF92DF92EF92FF920F931F9301
:10053000CF93DF93CDB7DEB7A0970FB6F894DEBFA9
:100540000FBECDBF5C017B016A018901A901B60123
:10055000CE0101960E948C029801AE014F5F5F4F61
:10056000B501C5010E945C029801A601BE016F5F42
:100570007F4FCB010E945C029801AE014F5F5F4F3D
:10058000B701C7010E945C02A0960FB6F894DEBFC7
:100590000FBECDBFDF91CF911F910F91FF90EF90D4
:1005A000DF90CF90BF90AF900895CF93DF93220F4D
:1005B000DB01EA01AC01E1E2F3E0E21BF10988941E
:1005C0000994FA013EC0FA0140C0FA0142C0FA01A2
:1005D00044C0FA0146C0FA0148C0FA014AC0FA0113
:1005E0004CC0FA014EC0FA0150C0FA0152C0FA01E3
:1005F00054C0FA0156C0FA0158C0FA015AC0FA01B3
:100600005CC0FA015EC0FA0160C0FA0162C0FA0182
:1006100064C0FA0166C0FA0168C0FA016AC0FA0152
:100620006CC0FA016EC0FA0170C0FA0172C0FA0122
:1006300074C0FA0176C0FA0178C0FA017AC0FA01F2
:100640007CC08D919991890B81938D919991890BA2
:1006500081938D919991890B81938D919991890BBA
:1006600081938D919991890B81938D919991890BAA
:1006700081938D919991890B81938D919991890B9A
:1006800081938D919991890B81938D919991890B8A
:1006900081938D919991890B81938D919991890B7A
:1006A00081938D919991890B81938D919991890B6A
:1006B00081938D919991890B81938D919991890B5A
:1006C00081938D919991890B81938D919991890B4A
:1006D00081938D919991890B81938D919991890B3A
:1006E00081938D919991890B81938D919991890B2A
:1006F00081938D919991890B81938D919991890B1A
:1007000081938D919991890B81938D919991890B09
:1007100081938D919991890B81938D919991890BF9
:1007200081938D919991890B81938D919991890BE9
:1007300081938D919991890B81938D919991890BD9
:100740008193812D881FDF91CF9108956F927F92C1
:100750008F929F92AF92BF92CF92DF92EF92FF92D1
:100760000F931F93CF93DF93CDB7DEB7A0970FB64C
:10077000F894DEBF0FBECDBF7C014B01042F642F68
:10078000C4010E94E50120914A0530914B05232BBD
:1007900091F1A02E002E000CBB08950143E0220F22
:1007A000331F4A95E1F7281B390B8FEF90E002C009
:1007B000959587952A95E2F7182F50E4752E6501D7
:1007C00081E0C81AD108CE0CDF1CE0914A05F091F7
:1007D0004B05B501C7010995892B69F0F6018081A8
:1007E00081238083602FC7010E9412028823D1F0E9
:1007F0007A947110EACF90E080E0A0960FB6F8945A
:10080000DEBF0FBECDBFDF91CF911F910F91FF9043
:10081000EF90DF90CF90BF90AF909F908F907F90A0
:100820006F900895202FA701B401CE0101960E9478
:10083000D502682E602FCE0101960E94120291E02F
:10084000811190E081E0611001C080E0880F981B69
:10085000913071F681E090E0D0CF1F93CF93DF937A
:10086000EC01DB0110E0EDB7FEB778970FB6F89416
:10087000FEBF0FBEEDBF799698962E9126952293D6
:100880002E91279522932E91279522932E9127958D
:1008900022932E91279522932E91279522932E9184
:1008A000279522932E91279522932E912795229377
:1008B0002E91279522932E91279522932E9127955D
:1008C00022932E91279522932E91279522932E9154
:1008D000279522932E91279522932E912795229347
:1008E0002E91279522932E91279522932E9127952D
:1008F000229322272795229333972D9121932D918F
:1009000021932D9121932D913081230F21932D91AE
:100910003081231F21932D913081231F21932D910D
:100920003081231F21932D913081231F21932D91FD
:100930003081231F21932D913081231F21932D91ED
:100940003081231F21932D913081231F21932D91DD
:100950003081231F21932D913081231F21932D91CD
:100960003081231F21932D913081231F21932D91BD
:100970003081231F21932D913081231F21932D91AD
:100980003081231F21932D913081231F21932081BA
:10099000211D21932081211D21932081211D21933F
:1009A0002081211D21937897989721913D91230FC4
:1009B000299321913D91231F299321913D91231F3B
:1009C000299321913D91231F299321913D91231F2B
:1009D000299321913D91231F299321913D91231F1B
:1009E000299321913D91231F299321913D91231F0B
:1009F000299321913D91231F299321913D91231FFB
:100A0000299321913D91231F299321913D91231FEA
:100A1000299321913D91231F299321913D91231FDA
:100A2000299321913D91231F299321913D91231FCA
:100A3000299321913D91231F299321913D91231FBA
:100A4000299321913D91231F2993111D6497349679
:100A5000229126952E93229127952E9322912795C8
:100A60002E93229127952E93222727952E93139725
:100A700021912D9321912D9321912D9321913C91A1
:100A8000230F2D932C91211D2D932C91211D2D93FE
:100A90002C91211D2D932C91211D2D9318972D9173
:100AA0003881230F29932D913881231F29932D916C
:100AB0003881231F29932D913881231F29932D914C
:100AC0003881231F29932D913881231F29932D913C
:100AD0003881231F29932D913881231F2993288141
:100AE000211D29932881211D29932881211D2993C6
:100AF0002881211D29932881211D29932881211DC9
:100B000029932881211D29932881211D299328813A
:100B1000211D29932881211D29932881211D299395
:100B20002881211D2993111D649731970FB6F894E0
:100B3000FEBF0FBEEDBF112379F024E14EE051E07E
:100B4000BC010E94D502113039F024E14EE051E0A1
:100B5000BE01CE010E94D50244E16EE071E0CE01FB
:100B60000E94CA01181654F424E14EE051E0BE017F
:100B7000CE01DF91CF911F910C94D502DF91CF91DF
:100B80001F910895CF93DF93220FDB01EA01AC019F
:100B9000EEE0F6E0E21BF10988940994FA013EC008
:100BA000FA0140C0FA0142C0FA0144C0FA0146C04D
:100BB000FA0148C0FA014AC0FA014CC0FA014EC01D
:100BC000FA0150C0FA0152C0FA0154C0FA0156C0ED
:100BD000FA0158C0FA015AC0FA015CC0FA015EC0BD
:100BE000FA0160C0FA0162C0FA0164C0FA0166C08D
:100BF000FA0168C0FA016AC0FA016CC0FA016EC05D
:100C0000FA0170C0FA0172C0FA0174C0FA0176C02C
:100C1000FA0178C0FA017AC0FA017CC08D919991ED
:100C2000891F81938D919991891F81938D919991BC
:100C3000891F81938D919991891F81938D919991AC
:100C4000891F81938D919991891F81938D9199919C
:100C5000891F81938D919991891F81938D9199918C
:100C6000891F81938D919991891F81938D9199917C
:100C7000891F81938D919991891F81938D9199916C
:100C8000891F81938D919991891F81938D9199915C
:100C9000891F81938D919991891F81938D9199914C
:100CA000891F81938D919991891F81938D9199913C
:100CB000891F81938D919991891F81938D9199912C
:100CC000891F81938D919991891F81938D9199911C
:100CD000891F81938D919991891F81938D9199910C
:100CE000891F81938D919991891F81938D919991FC
:100CF000891F81938D919991891F81938D919991EC
:100D0000891F81938D919991891F81938D919991DB
:100D1000891F81938D919991891F8193812D881FBE
:100D2000DF91CF910895AF92BF92CF92DF92EF9271
:100D3000FF920F931F93CF93DF936B015A01F90139
:100D400002811381E8012796D7FD279643E0D595C8
:100D5000C7954A95E1F77901F4E2EF0EF11C2C2FCB
:100D6000A701BC01C6010E94C20581111DC038E067
:100D7000C302C001112408171907A4F4F80183E085
:100D8000F595E7958A95E1F7EC0DFD1D07701127A4
:100D900021E030E001C0220F0A95EAF7808182232A
:100DA00011E019F410E001C011E02C2FA701B601E9
:100DB000C5010E94C205812FDF91CF911F910F9134
:100DC000FF90EF90DF90CF90BF90AF900895EF929B
:100DD000FF920F93CF93DF93EC017901202F0E94B4
:100DE000D502882359F0202FA701BE01CE01DF9143
:100DF000CF910F91FF90EF900C94C205DF91CF91AE
:100E00000F91FF90EF900895EF92FF920F93CF9381
:100E1000DF93EC017901202F0E94C205811107C0E8
:100E2000402FBE01C7010E94CA01813059F0202F16
:100E3000A701BE01CE01DF91CF910F91FF90EF90FE
:100E40000C94D502DF91CF910F91FF90EF90089510
:100E50006F927F928F929F92AF92BF92CF92DF92CA
:100E6000EF92FF920F931F93CF93DF93CDB7DEB72F
:100E7000A0970FB6F894DEBF0FBECDBF7C014B012B
:100E80006A01CE0101963C0180E2F30111928A953C
:100E9000E9F783E08983FA011081C7010E948C027F
:100EA0005601F4E0AF0EB11C012F9501A301B7016B
:100EB000C7010E94E7069601A401B701C7010E947D
:100EC0005C02A6014C575F4F9501B701C7010E9414
:100ED0000407A0960FB6F894DEBF0FBECDBFDF911A
:100EE000CF911F910F91FF90EF90DF90CF90BF9027
:100EF000AF909F908F907F906F900895262F062E31
:100F0000000C330B21503109322F330F230FDC013A
:100F1000EFEEF7E0E21BF109A60FB11D0E9006946B
:100F20000C9209940E9007940C920E9007940C92D8
:100F30000E9007940C920E9007940C920E900794CA
:100F40000C920E9007940C920E9007940C920E90B7
:100F500007940C920E9007940C920E9007940C92AA
:100F60000E9007940C920E9007940C920E9007949A
:100F70000C920E9007940C920E9007940C920E9087
:100F800007940C920E9007940C920E9007940C927A
:100F90000E9007940C920E9007940C920E9007946A
:100FA0000C920E9007940C920E9007940C920E9057
:100FB00007940C920E9007940C920E9007940C924A
:100FC0000E9007940C920E9007940C920E9007943A
:100FD0000C920E9007940C920E9007940C92089528
:100FE0000F931F93CF93DF93EC01142F888100E0C0
:100FF00080FF07C0242FAB01BE01CE010E94C205B5
:10100000082F612FCE010E947E07002351F0412F4F
:10101000110F550B41505109C40FD51F88818068AD
:101020008883DF91CF911F910F910895CF93DF9324
:10103000440FEB01DC01E0E6F8E0E41BF109099460
:1010400009900D9209900D9209900D9209900D92C0
:1010500009900D9209900D9209900D9209900D92B0
:1010600009900D9209900D9209900D9209900D92A0
:1010700009900D9209900D9209900D9209900D9290
:1010800009900D9209900D9209900D9209900D9280
:1010900009900D9209900D9209900D9209900D9270
:1010A00009900D9209900D9209900D9209900D9260
:1010B00009900D9209900D9209900D9209900D9250
:1010C000DF91CF9108954F925F926F927F928F92AE
:1010D0009F92AF92BF92CF92DF92EF92FF920F93C7
:1010E0001F93CF93DF93CDB7DEB7C056D1090FB6AC
:1010F000F894DEBF0FBECDBF4C012B015A01390160
:101100006801F80110817601F4E0EF0EF11C012F67
:101110009701AC01B501CE0101960E94E706A60138
:10112000BE016F5F7F4FCB010E948C029601AE0122
:101130004F5F5F4FB401C4010E945C029601AE0193
:101140004F5F5F4FB501C5010E945C029701A2018C
:10115000B301CE0101960E9404079701A201B301D9
:10116000C3010E94E7069701A401B501CE01819653
:101170000E94E7069601AE014F5D5F4FB201C201CA
:101180000E945C029701A501B401CE0181960E94E4
:101190000407A601B301C5010E948C029701AE01AC
:1011A0004F5D5F4FB501C5010E94E7069701A5019C
:1011B000B401CE018F5B9F4F0E94E7069601AE01FE
:1011C0004F5B5F4FB301C3010E945C029701A20114
:1011D000B301C3010E94E706A601BE016F5F7F4F06
:1011E000CE018F5B9F4F0E948C029701AE014F5D35
:1011F0005F4FBE016F5B7F4FCB010E94E7069701F7
:10120000A401BE016F5B7F4FCE0181960E94E7066D
:101210009601AE014F5F5F4FBE016F5D7F4FCB0107
:101220000E945C029701A201BE016F5D7F4FC20167
:101230000E94E706412FBE016F5B7F4FC4010E94F1
:101240001608C05ADF4F0FB6F894DEBF0FBECDBFF1
:10125000DF91CF911F910F91FF90EF90DF90CF9092
:10126000BF90AF909F908F907F906F905F904F90C6
:1012700008954F925F926F927F928F929F92AF925A
:10128000BF92CF92DF92EF92FF920F931F93CF9373
:10129000DF93CDB7DEB7A0970FB6F894DEBF0FBED1
:1012A000CDBF3C012B017A0159016801F801108181
:1012B0004601F4E08F0E911C012F9401AC01B7019F
:1012C000CE0101960E94E706A601BE016F5F7F4F27
:1012D000CB010E948C029601AE014F5F5F4FB301BC
:1012E000C3010E945C029601AE014F5F5F4FB701E0
:1012F000C7010E945C029401A201B501C5010E94D0
:10130000E706A601B501CE0101960E948C02940168
:10131000A301BE016F5F7F4FCB010E94E7069401DE
:10132000A701BE016F5F7F4FCB010E94E7069401CA
:10133000A301B701C7010E94E7069601A701B20108
:10134000C2010E945C029401AE014F5F5F4FB30186
:10135000C7010E94E7069601A701B501C5010E94D9
:101360005C029401A201B501C5010E94E706412F6C
:10137000BE016F5F7F4FC7010E941608A0960FB68F
:10138000F894DEBF0FBECDBFDF91CF911F910F91BB
:10139000FF90EF90DF90CF90BF90AF909F908F9095
:1013A0007F906F905F904F9008955F926F927F92C1
:1013B0008F929F92AF92BF92CF92DF92EF92FF9265
:1013C0000F931F93CF93DF93CDB7DEB7C054D109EE
:1013D0000FB6F894DEBF0FBECDBF4C015B0190E2AB
:1013E0009E012F5F3F4F6901F901292F11922A9524
:1013F000E9F781E089838E010F5D1F4FF80111929B
:101400009A95E9F789A3FB0150806C5F7F4F252DEA
:10141000A601C6010E94C205652DC6010E94E50114
:1014200001977C0166246394712C22E0E216F1049A
:10143000E4F4452DB801C4010E941608C05CDF4FDA
:101440000FB6F894DEBF0FBECDBFDF91CF911F91D5
:101450000F91FF90EF90DF90CF90BF90AF909F9053
:101460008F907F906F905F900895A501B801C8019B
:101470000E948C02F70183E0F595E7958A95E1F7E4
:10148000EC0DFD1DC70187709927930101C0220F44
:101490008A95EAF78081822331F09501A401B80191
:1014A000C8010E945C02F1E0EF1AF108BECF6F9212
:1014B0007F928F929F92AF92BF92CF92DF92EF92E4
:1014C000FF920F931F93CF93DF93CDB7DEB7C05436
:1014D000D1090FB6F894DEBF0FBECDBF6C013B0142
:1014E0007A014901F9011081612FCA010E9412029B
:1014F0008111A6C0A401B301CE0101960E948C0205
:101500009401AE014F5F5F4FB601CE0181960E94FC
:101510005C02A401BE016F5F7F4FCB010E948C0271
:101520009401A701B301C3010E945C02A401B701A9
:10153000C7010E948C025401F4E0AF0EB11C012FD0
:101540009501A701B601C6010E9404079501A701F4
:10155000B701C7010E9404079501A701B601C701A1
:101560000E94E7069401A701B601C6010E945C0231
:101570009501A601B601C7010E9404079501A701C4
:10158000B601C6010E940407F601808180FF6EC08B
:10159000212FA501B601C6010E94C205082F612FA7
:1015A000C6010E947E07E12F012E000CFF0B319730
:1015B000EC0DFD1D20E8029FC00111240081082BC5
:1015C0000083A401B601C7010E948C02012F95017E
:1015D000AE014F5D5F4FB701C7010E94E70695015D
:1015E000AE014F5D5F4FB701C7010E94E70695014D
:1015F000A701BE016F5D7F4FCB010E94E7069401FA
:10160000AE014F5D5F4FB601C6010E945C029501BD
:10161000AE014F5F5F4FB601CA010E94E706412F3E
:10162000B701C6010E941608412FB301C7010E94ED
:101630001608412FBE016F5F7F4FC3010E9416083D
:10164000C05CDF4F0FB6F894DEBF0FBECDBFDF9199
:10165000CF911F910F91FF90EF90DF90CF90BF90AF
:10166000AF909F908F907F906F900895612FC601EB
:101670000E947E07A6CFDC01E1E6FBE0E61BF10954
:1016800009941D921D921D921D921D921D921D92F4
:101690001D921D921D921D921D921D921D921D92D2
:1016A0001D921D921D921D921D921D921D921D92C2
:1016B0001D921D921D921D921D921D921D921D92B2
:1016C0001D9208953F924F925F926F927F928F92F8
:1016D0009F92AF92BF92CF92DF92EF92FF920F93C1
:1016E0001F93CF93DF93CDB7DEB7CC52D1400FB667
:1016F000F894DEBF0FBECDBFC55DDE4F99838883F2
:10170000CB52D1405B01CB5DDE4F59834883C5523C
:10171000D14069012701F7013080432DCE01819628
:101720000E941608232D032C000C330BC95DDE4FDD
:1017300039832883C752D1402A0D3B1DC75DDE4F38
:1017400039832883C952D140432DB90181E490E007
:101750008C0F9D1F80960E941608F7019080C1147F
:10176000D10409F451C1492DB601CE018F579F4FC5
:101770000E941608492DBE016F5D7F4F9E012F5FAD
:101780003F4F6901C9010E94160881E4E82EF12C3F
:10179000EC0EFD1E30E2E30EF11C492DB701CE0127
:1017A0008F5B9F4F0E9416089201AE014F575F4F0B
:1017B000B701CE0181960E949002F201EC55FF4FD5
:1017C0000190F081E02D9201AE014F575F4FB701BC
:1017D000CE01819609959201AE014F575F4FBE0130
:1017E0006F5B7F4FC6010E949002780142E0E41ACD
:1017F000F1081E141F040CF414C1CB5DDE4FE88108
:10180000F981C552D140808180958170CF5DDE4FD6
:101810008883C152D140CE5DDE4F1882C252D14082
:10182000CF5DDE4F88819981C152D14025E0880F7C
:10183000991F2A95E1F721E430E02C0F3D1F280F76
:10184000391FCD5DDE4F39832883C352D14041E03B
:1018500050E04C0F5D1F480F591FCB5DDE4F598381
:101860004883C552D14066246394712CCF5DDE4F0E
:1018700088819981C152D140681A790A65E0660C65
:10188000771C6A95E1F7E1E4F0E0EC0FFD1FE60D4F
:10189000F71DCF5DDE4FF983E883C152D14021E0CF
:1018A00030E02C0F3D1F620E731E8201CD5DDE4FB6
:1018B00028813981C352D140BF01C3010E9463080E
:1018C000420134E0830E911C032D9401AE014F5F61
:1018D0005F4FBE016F5D7F4FCE018F5F9E4F0E94B5
:1018E000E7069201CF5DDE4F48815981C152D14058
:1018F000BE016F5F7E4FCB010E945C029201A50189
:10190000BE016F5F7E4FCB010E945C02632DCE0152
:101910008F5F9E4F0E941202882309F4E6C0632D58
:10192000CE018F5F9E4F0E943B0B9201C75DDE4F41
:1019300048815981C952D140BE016F5F7E4FCB01B2
:101940000E945C029201A301BE016F5F7E4FCB013A
:101950000E945C028201CF5DDE4F28813981C15235
:10196000D140A301CD5DDE4F68817981C352D14062
:10197000CB5DDE4F88819981C552D1400E943909E3
:101980009201AE014F5F5E4FBE016F5B7F4FCE0194
:1019900001960E949002432DBE016F5F7F4FC55D8F
:1019A000DE4F88819981CB52D1400E941608432D89
:1019B000BE016F5B7F4FC55DDE4F88819981CB5241
:1019C000D140C95DDE4F28813981C752D140820F95
:1019D000931F0E941608C45DDE4F0FB6F894DEBF59
:1019E0000FBECDBFDF91CF911F910F91FF90EF9070
:1019F000DF90CF90BF90AF909F908F907F906F902F
:101A00005F904F903F900895692DCE018F579F4F63
:101A10000E943B0B81E0CF57DF4F8883C158D040F5
:101A2000A9CEF70113E0F595E7951A95E1F7CB5D9F
:101A3000DE4F88819981C552D140E80FF91FC70157
:101A40008770992721E030E002C0220F331F8A956A
:101A5000E2F7C9019081982381E009F080E090E0ED
:101A60009C0175E0220F331F7A95E1F7E1E48E2E99
:101A7000912C8C0E9D1E820E931E41E050E04C0F67
:101A80005D1F420F531FCD5DDE4F59834883C35204
:101A9000D140CC24C394D12CC81AD90AA5E0CC0CCF
:101AA000DD1CAA95E1F7B1E46B2E712C6C0E7D1E46
:101AB0006C0C7D1C81E090E08C0F9D1FC80ED91E20
:101AC00082019401B301C6010E9463089301A6013B
:101AD000B401CD5DDE4F88819981C352D1400E940F
:101AE000390991E0E91AF10884CE6E0141EEC40E85
:101AF000D11C432DBE016F5F7E4FC6010E941608A8
:101B00005E0151ECA50EB11C432DB401C5010E942C
:101B100016088E010F551F4F632DC8010E943B0B05
:101B200081E0F80180837E01F1E8EF0EF11C632D66
:101B3000C7010E943B0B432DB501C6010E94CA019B
:101B400081110AC0432DBE016F557F4FCE018F5FBB
:101B50009E4F0E941608E9CEF601908190FD0AC0C2
:101B6000632DC6010E947E07432DB401C8010E9467
:101B7000F007E1CFF501908190FD08C0632DC5010C
:101B80000E947E07432DB401C701F1CF232D181603
:101B9000ECF4A501B601C6010E94D502632DC60171
:101BA0000E947E07432DB701C8010E94CA0187FF2A
:101BB00006C0232DA401B801C8010E94C205232D2F
:101BC000A701B801C8010E94D502CECFA601B50178
:101BD000C5010E94D502632DC5010E947E07432DD9
:101BE000B801C7010E94CA0187FF06C0232DA401C6
:101BF000B701C7010E94C205232DA801B701C70183
:101C00000E94D502BFCFFC0101900020E9F7319777
:101C1000AF01481B590BBC018EEA95E00C946100A2
:101C20008F929F92AF92BF920F931F93CF93DF93A8
:101C3000CDB7DEB7A1970FB6F894DEBF0FBECDBF0C
:101C400019A2423008F44AE08E010F5D1F4F842E26
:101C5000912CB12CA12CA50194010E944B1AE62FC6
:101C6000B901CA01EA30F4F4E05DD801EE938D01C8
:101C7000232B242B252B79F790E080E0109719F087
:101C8000CD010E94030EA1960FB6F894DEBF0FBEE1
:101C9000CDBFDF91CF911F910F91BF90AF909F90DB
:101CA0008F900895E95CE1CFCF93DF930E94030EFC
:101CB000EC0188EC93E00E94030E8C0F9D1FDF91D6
:101CC000CF910895CF93DF93FC01448155816081CA
:101CD00071818EEA95E00E946100EC0188EC93E04E
:101CE0000E94030E8C0F9D1FDF91CF9108950F93DB
:101CF0001F93CF93DF93EC0188819981009759F06E
:101D00002A813B812617370730F081E0DF91CF91A0
:101D10001F910F9108958B016F5F7F4F0E94381CB8
:101D2000009759F0998388831B830A832C813D8116
:101D3000232B59F7FC011082E8CF80E0E7CFEF9228
:101D4000FF920F931F93CF93DF936115710541F4B9
:101D500080E0DF91CF911F910F91FF90EF90089558
:101D600041155105B1F07B01EC010C811D81040F7F
:101D7000151FB8010E94770E882351F328813981FD
:101D80008C819D81B701820F931F0E94101D1D83BE
:101D90000C8381E0DECF0F931F93CF93DF938C01F1
:101DA000EB01FC01808191810097E1F068817981EC
:101DB00061157105A9F0428153812C813D81421743
:101DC000530770F00E94101D8C819D81F80195834E
:101DD00084831D821C82DF91CF911F910F91089502
:101DE0000E94AF1B88819981F801918380838A8149
:101DF0009B81938382838C819D81958384831982C7
:101E000018821B821A82E5CFCF93DF93EC01888181
:101E10009981009711F00E94AF1B198218821D82D0
:101E20001C821B821A82DF91CF910895CF93DF939A
:101E3000EC01FB0101900020E9F73197AF01461B4F
:101E4000570B0E949F0E811103C0CE010E94040F08
:101E5000CE01DF91CF910895EF92FF920F931F93E0
:101E6000CF93DF93EC017B018A01BA010E94770EC8
:101E700081110BC0CE010E94040FCE01DF91CF91E2
:101E80001F910F91FF90EF9008951D830C83B70170
:101E9000888199810E94101DF0CFFB01DC01119611
:101EA0001C921E9213961C921E92129715961C92CB
:101EB0001E9214978617970749F06081718161150A
:101EC000710521F0448155810C942C0F0895FC017B
:101ED000118210821382128215821482FB010190FA
:101EE0000020E9F73197AF01461B570B0C942C0FDC
:101EF0000F931F93CF93DF9300D0CDB7DEB78C0144
:101F00006AEC73E00E94670F0E94B10097FD0EC05B
:101F10008A30910559F089831A8241E050E0BE0170
:101F20006F5F7F4FC8010E949F0EEECFC8010F90D8
:101F30000F90DF91CF911F910F910895AF92BF92B3
:101F4000CF92DF92EF92FF920F931F93CF93DF9385
:101F50007C016B015A0189012417350720F48B2D70
:101F60005901042F182F6AEC73E0C7010E94670F14
:101F7000D6011496CD91DC91AC16BD0620F50C1758
:101F80001D0708F4E801D601ED91FC911197EC0FC3
:101F9000FD1F108110826D917C916A0D7B1D611572
:101FA0007105E9F0FB0101900020E9F73197AF01DD
:101FB000461B570BC7010E942C0FF60180819181AF
:101FC000C80FD91F1883C701DF91CF911F910F91BF
:101FD000FF90EF90DF90CF90BF90AF900895C70132
:101FE0000E94040FEACFFC0180819181009711F0DB
:101FF0000C94AF1B08956F927F928F929F92AF9235
:10200000BF92CF92DF92EF92FF920F931F93CF93E5
:10201000DF93EC018C01060F171F40E4742E812C16
:10202000912C540193940C171D0751F138E0E32EC5
:10203000F12C612C70927C0090917A0090649093C6
:102040007A0080917A0086FDFCCFC0907800D09015
:1020500079000E949618A50194010E946D1A862DA0
:1020600090E0880F991F6115710509F46C2D61705E
:10207000662E682A81E0E81AF108E1F66992D3CF6A
:1020800081E090E0DF91CF911F910F91FF90EF9051
:10209000DF90CF90BF90AF909F908F907F906F9088
:1020A00008951F920F920FB60F9211242F933F9312
:1020B0008F939F93AF93BF938091AA059091AB05A7
:1020C000A091AC05B091AD053091A90523E0230F97
:1020D0002D3758F50196A11DB11D2093A9058093B8
:1020E000AA059093AB05A093AC05B093AD05809184
:1020F000A5059091A605A091A705B091A805019608
:10210000A11DB11D8093A5059093A605A093A705D9
:10211000B093A805BF91AF919F918F913F912F915F
:102120000F900FBE0F901F90189526E8230F029670
:10213000A11DB11DD2CF1F920F920FB60F92112485
:102140002F933F934F935F936F937F938F939F93BF
:10215000AF93BF93EF93FF938EEA95E00E941F0128
:10216000FF91EF91BF91AF919F918F917F916F916F
:102170005F914F913F912F910F900FBE0F901F9045
:1021800018951F920F920FB60F9211242F938F93D1
:102190009F93EF93FF93E091BE05F091BF0580817F
:1021A000E091C405F091C50582FD1BC0908180912E
:1021B000C7058F5F8F732091C805821741F0E091AA
:1021C000C705F0E0E255FA4F958F8093C705FF9160
:1021D000EF919F918F912F910F900FBE0F901F90B5
:1021E00018958081F4CFEEEAF5E01382128288EE32
:1021F00093E0A0E0B0E084839583A683B7838AEB65
:1022000093E09183808385EC90E09587848784ECCC
:1022100090E09787868780EC90E0918B808B81ECB3
:1022200090E0938B828B82EC90E0958B848B86EC94
:1022300090E0978B868B118E128E138E148E6AEC23
:1022400073E08BE496E00C94670FCF93DF93CDB7E8
:10225000DEB7C75BD1090FB6F894DEBF0FBECDBFA6
:10226000789484B5826084BD84B5816084BD85B571
:10227000826085BD85B5816085BD80916E0081607D
:1022800080936E0010928100809181008260809323
:102290008100809181008160809381008091800025
:1022A0008160809380008091B10084608093B10050
:1022B0008091B00081608093B00080917A0084604A
:1022C00080937A0080917A00826080937A00809176
:1022D0007A00816080937A0080917A008068809390
:1022E0007A001092C100E091BE05F091BF0582E036
:1022F0008083E091BA05F091BB051082E091BC05A6
:10230000F091BD058FEC80831092C605E091C20567
:10231000F091C30586E08083E091C005F091C1058E
:10232000808180618083E091C005F091C10580814A
:1023300088608083E091C005F091C105808180684C
:102340008083E091C005F091C10580818F7D8083FD
:102350008BEF9FE090934B0580934A0580E4982E85
:102360009E012F593F4F5901BE016F5F7F4F6B0197
:1023700045E16EE271E0CE018F579F4F0E94A603A8
:10238000892B09F43FC0CF55DF4FB982A882C15ACB
:10239000D04081E490E08C0F9D1FCD55DF4F998395
:1023A0008883C35AD0402AE031E0AC01B501805C9B
:1023B0009F4F0E94930621E030E0882311F030E027
:1023C00020E0220F331FE1EAF0E0EC0FFD1FE20FE7
:1023D000F31F408151810AE0E02E01E0F02E02EA75
:1023E00010E030E020E06EE471E0C6010E94620B74
:1023F00068E2C6010E941202882309F40DC19A9472
:102400009110B6CF6AEC73E0C5010E94670F02E23B
:1024100015E0D8018D918D01803138F441E050E014
:102420006BEC73E0C5010E949F0EF801319780812B
:1024300023961FAE1EAE239725961FAE1EAE259780
:1024400027961FAE1EAE279740E1B60190E00E948E
:102450000E1AF60101900020E9F73197AF014C19EF
:102460005D09B601CE018F5B9F4F0E942C0F27960E
:102470004EAD5FAD279723966EAD7FAD2397C50117
:102480000E949F0ECE018F5B9F4F0E94F30FB5E01D
:102490000A341B0709F0BDCF6DEC73E0C6010E9442
:1024A000670FF5014481558160817181C6010E94E9
:1024B0009F0E811103C0C6010E94040F6DED73E0F1
:1024C000C6010E94160F6FEE73E00E94160F66EFB2
:1024D00073E00E94160F6AE074E00E94160F6FE02E
:1024E00074E00E94160FBC01CE018F579F4F0E94CF
:1024F0004D0FC6010E94F30FC5010E94F30F8EEA33
:1025000095E00E94FF00892BD1F3CE018F5B9F4F96
:102510000E94780F23966EAC7FAC239761147104F0
:1025200049F027960EAD1FAD2797730101151105D0
:1025300009F08DC027968EAD9FAD2797B5E7EB2E9E
:10254000B5E0FB2E50E040E08035910509F4BBC0BA
:1025500082E194E00E94540ECE018F5B9F4F0E9457
:10256000F30FCE018F579F4F0E94620ECE018F57FF
:102570009F4F0E94F30FCF55DF4FB982A882C15AF7
:10258000D040E1E4F0E0EC0FFD1FCD55DF4FF983C3
:10259000E883C35AD04040E655E065E170E0C501EC
:1025A0000E94AE0145E755E064E170E0C6010E947B
:1025B000AE0149E855E064E170E0CE0145960E9425
:1025C000AE012AE031E0AE014F5B5F4FB501C501BE
:1025D0000E949306182F80914A0590914B05892BF4
:1025E00009F48EC0E12FF0E0EE0FFF1F21EA30E08A
:1025F0002C0F3D1FE20FF31FA080B18044E16EE07D
:1026000071E0C5010E94A603892B09F07BC088E90F
:1026100094E00E94540E1EC1AE014F575F4F65E11A
:1026200070E080E695E00E94AE01A60164E170E0F2
:1026300082E295E00E94AE01AE014B5E5F4F64E125
:1026400070E086E395E00E94AE01DCCE74014701A4
:10265000FFEF8F1A9F0AD7018C91082E000C990B5F
:102660000E94051A892B91F701501109060D171DBB
:10267000F8018081082E000C990B0E94051A892B05
:1026800031F00E151F0518F001501109F1CF0F5F41
:102690001F4FA8014E195F0927965FAF4EAF2797CE
:1026A0006E147F0420F4B701C3010E94F51C239629
:1026B000EEADFFAD239727968EAD9FAD2797E80F20
:1026C000F91F108237CF8A010E5F1F4F9801BE019C
:1026D0006F5B7F4FC6010E949E0F40E150E070E0AB
:1026E00060E089819A810E94EE18D7016D937D0187
:1026F000C6010E94F30FA8010035110521F72CCF68
:10270000B12CA12CE1E0F0E0112311F0F0E0E0E0C9
:10271000EE0FFF1F61EA70E06C0F7D1FE60FF71FE1
:1027200040815181EAE0EE2EE1E0FE2E02EA10E067
:102730009501B601C6010E94620BA60164E170E03A
:10274000CE018F579F4F0E94AE0168E2C6010E94E2
:10275000120281115CCF82E594E00E94540E8E013A
:102760000F571F4F780174E1E70EF11CD8016D91EE
:102770008D0170E090E080E040E10E94100E87E75C
:1027800094E00E94030E0E151F0581F788EC93E07C
:102790000E94030E222733272C193D0984E190E083
:1027A0003C016C187D0888248A94982C7601B8E046
:1027B000EB0EF11C64E1A62EB12C08E010E0F6014E
:1027C000C9018E0F9F1FB5010E94E51AA1E8B0E074
:1027D000AC0FBD1FA80FB91F8C918193EE15FF059B
:1027E00079F7D60190E080E04D914F70840F911DF4
:1027F000EA17FB07C9F7881699064CF448E0F6017A
:10280000ACE4B5E001900D924A95E1F74C0101501E
:102810001109A9F62F5F3F4F6216730671F689E71B
:1028200094E00E94540E0CE415E0F80161918F01D0
:1028300070E090E080E040E10E94100E87E794E0B5
:102840000E94030EF5E004351F0779F788EC93E04A
:102850000E94030E9E012F5F3F4F19018EEA95E003
:102860000E94FF00892B09F420C1CE018F559F4F94
:102870000E94780FCB55DF4F28813981C55AD0404F
:1028800050E040E0BE016F557F4FC1010E949E0F96
:10289000B101CE018F559F4F0E94CB0EC1010E9406
:1028A000F30FBE016F557F4FCE018F579F4F0E9490
:1028B0004D0F6AEC73E0CE018F599F4F0E94670F56
:1028C0006AEC73E0CE018F5B9F4F0E94670F67E752
:1028D00074E0C1010E94670FCB57DF4FA880B98019
:1028E000C558D040A114B10409F47BC08D809E80EE
:1028F0008114910409F475C02796EEACFFAC2797BC
:10290000E818F908CF57DF4F08811981C158D04026
:10291000E114F104D1F469817A81C8010E94171D84
:102920008C01009709F45DC023966EAD7FAD2397AF
:1029300027964EAD5FAD27970E94F51C27968EAD6A
:102940009FAD2797080F191FE6CFF7FC0FC06980CE
:102950007A806501C801B3010E94171D009709F430
:10296000B1C0880D991DCE0CDF1CF5CF68016981BF
:102970007A81C8010E94171D5C01009771F14C011A
:10298000801A910AA401B801C6010E94F51CC80C66
:10299000D91C23966EAD7FAD239727964EAD5FADC4
:1029A0002797C6010E94F51C27968EAD9FAD2797ED
:1029B000C80ED91E0D811E810A0D1B1DCB57DF4F7E
:1029C00088819981C558D0408E0D9F1DCB57DF4F10
:1029D00099838883C558D040CACFB801C6010E94E8
:1029E000101DC1010E94F30FCE018F5B9F4F0E940B
:1029F000F30FCB57DF4F8881C558D04080FF0FC100
:102A00008AEB94E00E94540E6AEC73E0C1010E94CC
:102A1000670FCE018F599F4F0E94F30FB1018BE4D6
:102A200096E00E94CB0EC1010E94F30FCE018F579A
:102A30009F4F0E94F30F6EEF74E0C1010E94670F79
:102A400040914F065091500660914B0670914C0694
:102A5000C1010E949F0E811103C0C1010E94040F99
:102A60006DED73E0C1010E94160F65E175E00E94F3
:102A7000160F6FE074E00E94160FBC01CE018F5B51
:102A80009F4F0E944D0FC1010E94F30FCE018F5B3B
:102A90009F4F0E94620ECE018F5B9F4F0E94F30FEB
:102AA000CE018F559F4F0E94F30F80E090E0892B5D
:102AB00009F4D4CE0E940B01882309F4CFCE0E94E2
:102AC0000000C8CEAC14BD0409F48BCFCD57DF4F46
:102AD00088819981C358D0408C159D05A8F4B60112
:102AE0006F5F7F4FC8010E94381C009709F479CFAF
:102AF000CF57DF4F99838883C158D040CD57DF4FE0
:102B0000D982C882C358D040CB57DF4F0881198182
:102B1000C558D0400150110917FD63CF48016D80A1
:102B20007E806114710409F45CCFCB57DF4FA8801D
:102B3000B980C558D040A114B10409F452CFA614ED
:102B4000B70408F44ECF0A151B0520F0450131E00B
:102B5000831A9108CF57DF4FC880D980C158D04021
:102B600069817A81C955DF4F79836883C75AD0401C
:102B7000C6010FEF1FEF2601480C591C48165906D5
:102B8000A0F0C955DF4F68817981C75AD0400E94B3
:102B9000171D009751F09C012C193D0982169306D0
:102BA00008F4980101968901E9CF17FD1ACF600E4C
:102BB000711EC601860D971DA50146195709BC0156
:102BC0008E0D9F1D0E94FE1CCB57DF4F888199817F
:102BD000C558D0408E0D9F1DCB57DF4F99838883FA
:102BE000C558D040CF57DF4F28813981C158D040D8
:102BF000820F931FDC011C92CF57DF4F8881998190
:102C0000C158D04023966EAD7FAD239727964EAD29
:102C10005FAD2797800F911F0E94F51C7BCFC95590
:102C2000DF4F19821882C75AD040C955DF4F4881FB
:102C30005981C75AD040CB57DF4F88819981C558F9
:102C4000D0404817590708F014C2F10128E011924A
:102C50002A95E9F77101C955DF4FC880D980C75A55
:102C6000D04030E1C30ED11C8A010E5F1F4F980186
:102C7000BE016F577F4FCE018F5B9F4F0E949E0F0B
:102C800040E150E070E060E023968EAD9FAD239769
:102C90000E94EE18D7016D937D01CE018F5B9F4F8F
:102CA0000E94F30FA8010C151D05F1F622E180E941
:102CB000E82E99E786E53DECD32E34E34BEAC42EAB
:102CC000BFEECA54DF4FB883C65BD040E1E0C954C1
:102CD000DF4FE883C75BD040CA54DF4FA880C65B94
:102CE000D040C954DF4FF881C75BD040AF26F32EE8
:102CF000FC248D25E82FF0E0EA54FD4FE081CA5412
:102D0000DF4FB881C65BD040B9278B2F90E08A5443
:102D10009D4FDC01FC912E25CA54DF4F2883C65BF2
:102D2000D040C954DF4FB881C75BD040BF5FC954A2
:102D3000DF4FB883C75BD0403D2D8A2D9E2D2C2DB3
:102D4000BD3009F058C179817C256A816D259B8150
:102D500089275C815E254D814F253E813E272F814D
:102D60002F279885CA54DF4FA881C65BD0409A2789
:102D7000C954DF4FB881C75BD040B150C954DF4F51
:102D8000B883C75BD040BB2309F438C1082F07279D
:102D900010E00A541E4FD8010C9110E00A541E4F47
:102DA000D801BC90052F062710E00A541E4FD80109
:102DB0000C9110E00A541E4FD8010C91172F1B25BF
:102DC000962E9026B8265027622F642770E06A540A
:102DD0007E4FDB016C9170E06A547E4FDB018C9179
:102DE000692F632770E06A547E4FDB016C9170E0BD
:102DF0006A547E4FDB016C91542E5826432E462692
:102E00002827492F4627312F3925BB2DB327C555F4
:102E1000DF4FB883CB5AD0406B2E6526892D8B258A
:102E2000682F70E0C455DF4F79836883CC5AD04057
:102E30008B2D8527A82FB0E0C255DF4FB983A8831B
:102E4000CE5AD0405127652F70E0C055DF4F7983AF
:102E50006883C05BD040952D9425822F8927742EDE
:102E60007826542D5227A52FB0E0CE54DF4FB983DA
:102E7000A883C25BD040622F642770E04525A42F51
:102E8000B0E0CC54DF4FB983A883C45BD040C954B1
:102E9000DF4F0881C75BD0400A25CA54DF4FB88195
:102EA000C65BD040BE25C755DF4FB883C95AD04056
:102EB000FC24C655DF4FF882CA5AD0404E2F50E04E
:102EC0004A545D4FDA01AC90AD24EF2FF0E0EA54A4
:102ED000FD4F80808026FB01EA54FE4FE081E7250C
:102EE0002E27E22FF0E0EA54FD4F7081C755DF4FE7
:102EF000B881C95AD0407B27CC54DF4FE881F98193
:102F0000C45BD040EA54FE4FE081E827F0E0EA5489
:102F1000FD4F60816F25E32FF0E0EA54FE4FE08122
:102F2000E6251E27E12FF0E0EA54FD4F80818A2537
:102F3000C455DF4FE881F981CC5AD040EA54FE4FA6
:102F4000E081E6259E26E92DF0E0EA54FD4F508110
:102F50005825C255DF4FE881F981CE5AD040EA5456
:102F6000FE4FE0816E26B624EB2DF0E0EA54FD4FD3
:102F700040814E25C055DF4FE881F981C05BD040CC
:102F8000EA54FE4FE081C555DF4FF881CB5AD0405F
:102F9000EF27F0E0EA54FD4F30813C25E92FF0E0C7
:102FA000EA54FE4FE081E7255E26E52DF0E0EA5485
:102FB000FD4F20812D25CE54DF4FE881F981C25B82
:102FC000D040EA54FE4FE081E7254E26E42DF0E0A4
:102FD000EA54FD4F90819027CA54DF4F0883C65BA7
:102FE000D040F601FE2CE82CC655DF4FD880CA5AD7
:102FF000D040CB2EBDCEEF2C6F016ECE70939D05D1
:1030000060939E0580939F055093A0054093A10572
:103010003093A2052093A3059093A4050DE915E034
:10302000D8018D918D01882381F022968FAF229750
:1030300023961FAE239741E050E0BE016F5B7F4FA8
:10304000CE018F599F4F0E949F0EE5EAF5E0E017F1
:10305000F10731F7C955DF4F28813981C75AD04070
:10306000205F3F4FC955DF4F39832883C75AD0406F
:10307000DCCD1A8219821C821B821E821D82BE0137
:103080006F597F4FC1010E94CB0EC3CC8BE496E0F9
:103090000C94F30F8F929F92AF92BF92CF92DF92D8
:1030A000EF92FF92CF93DF93EC01688179818A815F
:1030B0009B81611571058105910521F464E279ED2B
:1030C0008BE597E02DE133EF41E050E00E946D1A6F
:1030D00049015A019B01AC01A7EAB1E40E948C1A94
:1030E0006B017C01ACEEB4EFA50194010E949A1A29
:1030F000C60ED71EE81EF91EF7FE06C081E0C81AEC
:10310000D108E10880E8F80AC882D982EA82FB8205
:10311000C701B6019F77DF91CF91FF90EF90DF90CD
:10312000CF90BF90AF909F908F9008958F929F9275
:10313000AF92BF92CF92DF92EF92FF926091000127
:103140007091010180910201909103016115710557
:103150008105910521F464E279ED8BE597E02DE19D
:1031600033EF41E050E00E946D1A49015A019B0182
:10317000AC01A7EAB1E40E948C1A6B017C01ACEEB1
:10318000B4EFA50194010E949A1AC60ED71EE81E3C
:10319000F91EF7FE06C081E0C81AD108E10880E8F0
:1031A000F80AC0920001D0920101E0920201F0926F
:1031B0000301C701B6019F77FF90EF90DF90CF909A
:1031C000BF90AF909F908F9008956093000170938F
:1031D000010180930201909303010895B0E0A0E003
:1031E000E4EFF8E10C94A01A5C016B017A0161151F
:1031F000710519F0FB0191838083E114F10451F012
:10320000C7010297839730F040E030E020E090E083
:1032100072C05E01E5012196F5011081812F90E0D9
:103220000E94051A892BA9F71D3201F52196F50197
:10323000118101E0E114F10409F4DAC0F0E1EF16C4
:10324000F10409F082C0103359F488818F7D8835EC
:1032500009F076C0198122960260F0E1EF2EF12C80
:10326000812C912CA12C88E0B82E8CC01B3221F42B
:10327000E5012296F501118100E0DCCFEAE0EE16CF
:10328000F10409F4BBC0F0E1EF16F10409F06DC0E0
:10329000E7CF78E0E72EF12C812C912CA12C60E176
:1032A000B62E70C03FE9310F3A3128F439EA332E97
:1032B00080C021E09AC0302F3170C114D10431F0A8
:1032C000222309F12197F601D183C08327FF21C072
:1032D00060E070E080E090E8311104C06FEF7FEFB4
:1032E0008FEF9FE722E230E03093520620935106A1
:1032F000462F372F282F642F732F822FCDB7DEB79D
:10330000E1E10C94BC1A01FF04C02297F601D183BD
:10331000C083332341F090958095709561957F4FE0
:103320008F4F9F4FE5CF97FFE3CF82E290E09093DE
:103330005206809351066FEF7FEF8FEF9FE7D8CF54
:1033400010E3E114F10409F4A4CF28E0E216F1043B
:1033500009F4A2CF0CF092CF812C912CA12CE0E4A7
:10336000BE2E82E0E816F10469F060E070E080E0D3
:1033700090E897010F2C000C440B550B0E944B1A40
:1033800049015A0120E060E070E0CB0127010F2CD9
:10339000000C66087708FE0150ED352E310E39E03D
:1033A000331540F43FEB310F3A3108F07BCF49EC55
:1033B000342E310E3E141F040CF07DCF27FD15C0B6
:1033C00086169706A806B90678F0A30192010E9416
:1033D0003B1A630D711D811D911D613071058105C1
:1033E00020E8920708F465CF2FEF21961081D3CF04
:1033F000103309F42ACF2AE0E22EF12C9CEC892E1E
:10340000982CA82C9CE0B92EBDCF91110C94281AB1
:10341000803219F089508550C8F70895BB27FB0109
:103420005527AA27880F991FAA1FA41710F0A41BBD
:1034300083955051B9F7A05DAA3308F0A95DA19317
:10344000009779F7B111B1931192CB010C942B1A1B
:10345000992788270895DC01FC01672F7191772354
:10346000E1F7329704C07C916D9370836291AE173F
:10347000BF07C8F30895DB018F939F930E948C1AB6
:10348000BF91AF91A29F800D911DA39F900DB29F00
:10349000900D11240895A1E21A2EAA1BBB1BFD0159
:1034A0000DC0AA1FBB1FEE1FFF1FA217B307E40723
:1034B000F50720F0A21BB30BE40BF50B661F771F7B
:1034C000881F991F1A9469F760957095809590955B
:1034D0009B01AC01BD01CF010895052E97FB1EF4A1
:1034E00000940E94841A57FD07D00E944B1A07FCD3
:1034F00003D04EF40C94841A509540953095219544
:103500003F4F4F4F5F4F089590958095709561950F
:103510007F4F8F4F9F4F08950E94D61AA59F900D01
:10352000B49F900DA49F800D911D11240895B7FFA5
:103530000C948C1A0E948C1A821B930B08952F9264
:103540003F924F925F926F927F928F929F92AF9233
:10355000BF92CF92DF92EF92FF920F931F93CF9380
:10356000DF93CDB7DEB7CA1BDB0B0FB6F894DEBF17
:103570000FBECDBF09942A88398848885F846E843D
:103580007D848C849B84AA84B984C884DF80EE8087
:10359000FD800C811B81AA81B981CE0FD11D0FB690
:1035A000F894DEBF0FBECDBFED010895A29FB0011C
:1035B000B39FC001A39F700D811D1124911DB29F67
:1035C000700D811D1124911D089597FB072E16F48F
:1035D000009407D077FD09D00E94F91A07FC05D0A6
:1035E0003EF4909581959F4F0895709561957F4F1A
:1035F0000895AA1BBB1B51E107C0AA1FBB1FA6173A
:10360000B70710F0A61BB70B881F991F5A95A9F78B
:1036100080959095BC01CD010895EE0FFF1F059098
:10362000F491E02D09940F931F93CF93DF93823091
:10363000910510F482E090E0E0915506F091560675
:1036400030E020E0B0E0A0E0309799F4211531059A
:1036500009F44AC0281B390B24303105D8F58A817A
:103660009B816115710589F1FB0193838283FE01C2
:1036700011C0408151810281138148175907E0F040
:103680004817590799F4109761F012960C93129706
:1036900013961C933296CF01DF91CF911F910F911A
:1036A00008950093550610935606F4CF2115310561
:1036B00051F04217530738F0A901DB019A01BD010F
:1036C000DF01F801C1CFEF01F9CF90935606809347
:1036D0005506CDCFFE01E20FF31F81939193225047
:1036E000310939832883D7CF20915306309154066E
:1036F000232B41F4209106013091070130935406A9
:1037000020935306209104013091050121153105C4
:1037100041F42DB73EB74091080150910901241B97
:10372000350BE0915306F0915406E217F307A0F42D
:103730002E1B3F0B2817390778F0AC014E5F5F4F07
:103740002417350748F04E0F5F1F509354064093DF
:103750005306819391939FCFF0E0E0E09CCFCF930D
:10376000DF930097E9F0FC01329713821282A09157
:103770005506B0915606ED0130E020E01097A1F417
:1037800020813181820F931F20915306309154067E
:103790002817390709F061C0F0935406E0935306E7
:1037A000DF91CF910895EA01CE17DF07E8F54A814E
:1037B0005B819E0141155105B1F7E901FB83EA8365
:1037C00049915991C40FD51FEC17FD0761F4808111
:1037D00091810296840F951FE901998388838281E4
:1037E00093819B838A83F0E0E0E012968D919C9117
:1037F00013970097B9F52D913C911197CD01029641
:10380000820F931F209153063091540628173907D1
:1038100039F6309751F51092560610925506B0932E
:103820005406A0935306BCCFD383C28340815181F9
:10383000840F951FC817D90761F44E5F5F4F8881C9
:103840009981480F591F518340838A819B819383BB
:1038500082832115310509F0B0CFF0935606E0932D
:1038600055069ECFFD01DC01C0CF13821282D7CF57
:10387000B0E0A0E0EEE3FCE10C94A11A8C0100970B
:1038800051F4CB010E94131B8C01C801CDB7DEB7E8
:10389000E0E10C94BD1AFC01E60FF71F9C012250D9
:1038A0003109E217F30708F49DC0D901CD91DC91ED
:1038B0001197C617D70798F0C530D10530F3CE0160
:1038C00004978617970708F3C61BD70B2297C19357
:1038D000D1936D937C93CF010E94AF1BD6CF5B0138
:1038E000AC1ABD0A4C018C0E9D1EA0915506B091DC
:1038F0005606512C412CF12CE12C109731F580917A
:103900005306909154068815990509F05CC0461637
:10391000570608F058C08091040190910501009766
:1039200041F48DB79EB74091080150910901841B65
:10393000950BE817F90708F055C0F0935406E0938B
:103940005306F90171836083A0CF8D919C911197EB
:1039500012966C90129713967C901397A815B90540
:1039600059F56C0142E0C40ED11CCA14DB0420F1ED
:10397000AC014A195B09DA011296159780F0628250
:10398000738251834083D9016D937C93E114F104D8
:1039900071F0D7011396FC93EE93129776CF22968F
:1039A0008C0F9D1FF90191838083F301EFCFF0937A
:1039B0005606E093550669CF4816590608F42C01BF
:1039C0007D01D3019ACFCB010E94131B7C0100978C
:1039D00049F0AE01B8010E94F51CC8010E94AF1B5E
:1039E000870153CF10E000E050CFFB01DC0102C0A3
:1039F00001900D9241505040D8F70895681779070B
:103A000068F4FB01DC01E40FF51FA40FB51F02C031
:103A100002900E9241505040D8F708950C94F51C36
:103A2000FB01DC0101900D920020E1F70895FB01FC
:103A300051915523A9F0BF01DC014D91451741116A
:103A4000E1F759F4CD010190002049F04D91401566
:103A50004111C9F3FB014111EFCF81E090E00197E3
:103A6000089510E0C5E3D0E004C0FE010E940D1BE4
:0C3A70002196C633D107C9F7F894FFCFA8
:103A7C00010000000000570680001414A100FFFF95
:103A8C00FF7FFFFFFFFFFFFFFFFFFFFFFFFFFFFFBA
:103A9C00FFFF0000000000000000000000005722A3
:103AAC0075CAD3AE27F9C8F401000000000000006D
:103ABC00000001000000000000000000000082FC7B
:103ACC00CB13B98BC368896964462873F58E68B5C6
:103ADC00964A32FBC57A3751230412C9DC597D94BE
:103AEC0068315528A62300000000000000000000EB
:103AFC00000000000000000000000000000045FA7B
:103B0C0065C5ADD4D4819FF8AC658B7ABD54FCBE31
:103B1C00971C000000000000000000000000570A85
:103B2C00D50928072D0400020406080A0C0E1012F1
:103B3C001416181A1C1E20222426282A2C2E303249
:103B4C003436383A3C3E40424446484A4C4E505239
:103B5C005456585A5C5E60626466686A6C6E707229
:103B6C007476787A7C7E80828486888A8C8E909219
:103B7C009496989A9C9EA0A2A4A6A8AAACAEB0B209
:103B8C00B4B6B8BABCBEC0C2C4C6C8CACCCED0D2F9
:103B9C00D4D6D8DADCDEE0E2E4E6E8EAECEEF0F2E9
:103BAC00F4F6F8FAFCFE1B191F1D131117150B095F
:103BBC000F0D030107053B393F3D333137352B29B9
:103BCC002F2D232127255B595F5D535157554B49A9
:103BDC004F4D434147457B797F7D737177756B6999
:103BEC006F6D636167659B999F9D939197958B8989
:103BFC008F8D83818785BBB9BFBDB3B1B7B5ABA979
:103C0C00AFADA3A1A7A5DBD9DFDDD3D1D7D5CBC968
:103C1C00CFCDC3C1C7C5FBF9FFFDF3F1F7F5EBE958
:103C2C00EFEDE3E1E7E577747A79717F7B707C7374
:103C3C007276787E7D7547444A49414F4B404C43E0
:103C4C004246484E4D45A7A4AAA9A1AFABA0ACA330
:103C5C00A2A6A8AEADA597949A99919F9B909C9380
:103C6C009296989E9D9517141A19111F1B101C13D0
:103C7C001216181E1D15F7F4FAF9F1FFFBF0FCF300
:103C8C00F2F6F8FEFDF5B7B4BAB9B1BFBBB0BCB330
:103C9C00B2B6B8BEBDB507040A09010F0B000C0380
:103CAC000206080E0D05C7C4CAC9C1CFCBC0CCC310
:103CBC00C2C6C8CECDC537343A39313F3B303C3320
:103CCC003236383E3D3527242A29212F2B202C2310
:103CDC002226282E2D2567646A69616F6B606C63E0
:103CEC006266686E6D6587848A89818F8B808C8310
:103CFC008286888E8D85E7E4EAE9E1EFEBE0ECE380
:103D0C00E2E6E8EEEDE5D7D4DAD9D1DFDBD0DCD3CF
:103D1C00D2D6D8DEDDD557545A59515F5B505C531F
:103D2C005256585E5D5500000000410161008E0046
:103D3C008E01FF009D00F1000D0A0030007B227007
:103D4C0075626C69634B6579223A202200222C2023
:103D5C00226D6963726F4E616D65223A2022006D8F
:103D6C006963726F3200222C2022747970654D6564
:103D7C007373616765223A2022004B455953002228
:103D8C007D004572726F723A204C6120636C6176D3
:103D9C00652070C3BA626C69636120726563696285
:103DAC00696461206E6F207469656E6520656C2096
:103DBC0074616D61C3B16F20657370657261646FFE
:103DCC002E00436C61766520636F6D70617274694F
:103DDC00646120636F6D706C6574612063616C63EA
:103DEC00756C6164613A002000436C617665206FEC
:103DFC007074696D697A6164612073656C65636365
:103E0C00696F6E6164613A004572726F7220636112
:103E1C006C63756C616E646F20636C617665206396
:103E2C006F6D70617274696461004572726F723A81
:103E3C0020456C206D656E73616A652063696672DE
:103E4C0061646F206E6F207469656E6520756E20DD
:103E5C0074616D61C3B16F206DC3BA6C7469706CA1
:103E6C006F20646520322062797465732E007B228A
:103E7C006465637279707465644D657373616765AD
:103E8C00223A20220064657374696E6174696F6EE6
:023E9C00000024
:00000001FF
